:020000040000FA
:F90000004252434D6366674400000000B380020003031742434D3230373335423120666362676120616E646F6E001603020000070111042000FA0330005002600018020C010C0102011800003200700F0000600800009C016000FF0000000A00000009010402200000000704FF0200000207C401FF0605E403E403E403E403E403FF03FF03FF03FF03FF0349044904490449044904880488048804880488040005000500050005000508050805080508050805043F043F143F143F143F143F020100006000059C02FFA002FFA402FFA802FFAC02FF0000600003B801FFB401FF5806FF0000410002F801FFFFFC01FFFF1A1C1E212319A8AB1D1F22242637
:F900F90019A8AB212326282A19C8232426292B2D19C82327282B2D301A08232A2C3032361A28234501570345016E0345018503450185035401B0035401B0030907C401FF0605E403E403E403E403E403FF03FF03FF03FF03FF0349044904490449044904880488048804880488040005000500050005000508050805080508050805043F043F143F143F143F143F020100006000059C02FFA002FFA402FFA802FFAC02FF0000600003B801FFB401FF5806FF0000410002F801FFFFFC01FFFF1A1C1E212319E8AB1D1F22242619D8AB212326282A19C8232426292B2D19C82327282B2D301A08232A2C3032361A282345011A034501310345014803450190
:F901F2004803540173035401730311010101030188670004270007B400F079FC002802D007BCBDE8F08F07BC01231370DFF5A3BC0000A8F86802BDE8F08100F0AEFF10BD0000BDE8F04701F050B8BDE8104001F042B901F055F9BDE8F081284601F0FDF99AF5CEF99AF512BB000001209CF5C3F801F0FFF9A6F5D2BD4FF4C870A6F5F1BD000008BF70BD0020A6F568FF26F6BBBA000001F0E2BABDE81F4001F0EBBA01D1052010BD99F605BE000007D094F88810002903D0B4F86E10D4F590B9D4F5A3B9000005D0052903D02FF67FFAEFF584B8EFF596B80000207002F024FCBDE810404FF0000020F696B9000003B4204602F048FC012803BC00D070CB
:F902EB00BD40F08000086031461DF6DCBE02F060FC1FF607BD84F881103EB4204602F06BFC3EBC10B920461DF62FBE1DF675BE000002F082FC4FF000095AF6F6B840F20114C0F20004FDF594F8FDF5B8B802F0D2BC204602F021FDF5F546B902F02EBD01B402F034FD01BCF5F5F1FDF5F58DBE000033F6EFFE08B1FBF559B902F0ADFEFBF555B904A808A90EAA02F0AFFEFAF530BFBDE8F04F02F0E4BE22F610FC02F09CFF22F6FCBC02D00028A8F528BB02F0A8FF002801D0A8F526BB0020BDE8F09F7047BDE8F04103F03EB8D0E84F2F0A44C0E8432F002BF8D1104670470000032802D004280AD022E012480068C0F3020001281CD010490A20087066
:F903E40018E00F49012041F2100208600D480821C170817841F0010181700B480168114301600B49094808600B490A4808600C490A48086000207047A807280089072800AC3120006812280068292800AB362800140028000D082700F0242800890727002432200038B52D482D4932F6ABFF32F6ECFCA0B99AF525FC2A49042088712A480321C0F8B011016841F0040101602849264808602748016841F4807101602749254808609FF7CCFC25480024016841F0200101602449234808602448244904701020088024492348086001F093F9244D2248254928602348886224490120087023494FF4A060088068460094B0F56CF89DF800001F2804D11E1C
:F904DD0049087840F00A0008701E491C4808601D4868601D481F4944701D48C1F88C0138BD00001C00210000000000740728003081330038382800B0072800A80728001C0021006404200004002800CD33280008002800F81E200058072800C10527000C1C2000E1192700F85520008D082700B049200097342000900C2800B4072800A9132700681C2000191A2700502F2000CD2F270044592000054910B5D1E9003401228240134344EAE274C1E9003410BDE836280030B400240C601E4C052B33D008DC012B30D0022B2ED0032B2CD0042B2AD106E0062B27D0082B0FD03F2B23D119E0022A02D00C2A04D01DE0A5680D60E46815E025690D60646938
:F905D60011E0262A02D01F2A04D00DE0A5690D60E46908E025680D60646804E0162A06D1256A0D60646A4C600C68002C02D130BCA8F53AB830BC704700002CFF200070B5012927D1C10425D51348D8F588FB0446124E124D1BE0BCF51FFA0F490E48D8F5C5FA30880B2804D005EB8000006820B107E0094802F055FB09E00949102033F6A3F9308805EB8000016803488847641E601CE0D170BD1CAB200074AB200078C514000400008110B5044629B1012903D0022901D1D6F5E7FC204610BD000008B502280AD122F07F404B09002100902FA2084611F69EF898F605FE012008BD10B504469BF570FC38B934B12078052803D1B4F8030002F028FA3200
:F906CF0048016809B120468847032010BD2DE9F043A5B080460C464FF000090B2804D025B0BDE8F043BEF51EBC2079284D022827D1274F386820B3A07A002600BB6846BEF54EFB9DF80600A8B12296062222A90DF11A00239633F60BFD60B9684630F668F940B1D0F80E10CDF81A10408AADF81E008DF819602A6812B16946122090473E602A6812B121464046904725B04846BDE8F08300000A444246575F4153534552545F545950455F464154414C212121206D6F64756C655F69643A2025642C2069643A2025780A000000E8282000F4282000EC2820000B46084910B5086011461846DDF524F9A5F530F9044A0549054830F64FFE002010BD00000F
:F907C800F4282000F1F20200D9F20200D5082700F8B506461648002511A701782A46304698F5F1FF040008D0002198F5BEFF0546204698F5B4FF3DB10FE000213B460DA20846009610F6ECFF00213B460DA20846009610F6E5FF98F64CFD2846F8BD00004657206D656D20616C6C6F633A200000531D28000A25736E6F20706F6F6C2025640A00000A25736E6F20626C6F636B2025640A002DE9F04F87B00020804602900490059018219F4833F691FCD1F5FCFF00286ED09C4C9B4D9C4FE16A606A084428603978012901D005290DD1022206A9D8F5BBF8BDF81810A1F57F40FF3801D0A5F530FC606A6861FF2098F5CFFF5FEA000A03D18E4910203319
:F908C100F66DF8387802280ED18C48E16A0078B1FBF0F0C01C860800213046A5F5E0FB3146029032F660FD8148446A7AE0062269462046D8F58DF87E480078012801D0052808D1BDF80010A1F57F40FF3802D1764844616AE0BDF800004FF0000B000441D56846A5F5DBF8E8B3BDF80250A01D29186E480068814235D8002704F1060914E0042D01D22E4600E00426324651464846D8F55EF8002004E0C3E01AF80010401C0F44B042F9D3AD1BB144002DE8D187F055009DF80410C0B2814213D1BDF800000499C0F30E052846A5F586F808B94FF0010B28460599A5F572F80590049808B90598049053480078012835D0052833D0BBF1000F53D0504D41
:F909BA00BDF802202878411D1144B1FBF0F0C3B28DF80C30012241460298A5F5A9F89DF80C002978804410FB014441480068A04280D80498A5F55FF8504698F5F6FF3E480078012841D005283FD03A4800252C46C16A3B482F462E460078B1FBF0F84EE0BDF802003349401C20F00105AD1DBBF1000F03D0088A284408820EE0488A28444882BDF80000000407D50020ADF80000022269462046D7F5D0FF05F1010525F001000444C1E7BDF80000000407D50020ADF80000022269462046D7F5BEFF204808F1010800780444AFE71948408A58B3AEF51FFC28E003AB424631460298A5F5D9F800289DF80C0003D0844205D2044603E0854200D2054607CF
:F90AB30044C0B206444645E9D3A54205D2E0B20299A5F561F928B907E0012C05D9B5EB570F02D20298A5F502F90298A5F509F8012007B0BDE8F08F000034A620002C0520007C05200004010081942A20000120107000205070508050609060D0601061363950611F2971D2DFE801F01013181B1E2124272A2D303336393C3F4245484B4E5154575A5D606366696C004FF46D7001E04FF471705080012070474FF4C270F9E74FF4CA70F6E74FF4D270F3E74FF4DA70F0E74FF4E270EDE74FF4EA70EAE74FF4F270E7E74FF4FA70E4E74FF40170E1E74FF40570DEE74FF40970DBE74FF40D70D8E74FF41170D5E74FF41570D2E74FF41970CFE74FF41D70EB
:F90BAC00CCE74FF42170C9E74FF42570C6E74FF42970C3E74FF42D70C0E740F27440BDE740F28440BAE740F26440B7E74FF44570B4E74FF44970B1E74FF44D70AEE74FF45170ABE74FF45570A8E74FF45970A5E7FFE710700020704770B586B004460D466A46DEF5A7FF9DF8000000284FD0BDF8020010B1284941F82400019870B3264A0146A43AFF26254B601C914208D19DF801101A688E40B2438840104318600BE01D4AD83291420AD19DF801105A688E40B243884010435860019908600EE009689DF801209640019AB1431160019909689DF801209040014301980160029868B1049828B102980068049988430299086002980068039908430221
:F90CA5009908604FF44E1101EB84010598C1F80002054805559DF8000006B070BD00000084330054FF20004CA620004349007808700020ACF62FBC4149AFF20F00D9F570BF3F49491EAFF21B00D9F56ABF3C49891E012808D0022805D1AFF22300394A1060022088707047AFF22900364A106001204870704710B501281AD133480078012804D03248B0F84E00002811D03148006810B10120FFF7DAFF2F480068002807D02E480078002803D1BDE810400220CDE710BDF0B40C46284916461A460B78DFF89CC033B901219CF80050814029438CF80010234D296801EB4000002105E034F8027B07804BB1801C491CB1EB560FF6D3134CA41E1BB1314640
:F90D9E0009E0001DF4E79CF80000C043800706D18CF80000710028686368F0BC1847F0BC70478C460F490978002904D11346014662460120C1E7704713460A4601460020BBE7162B20005EFF20002C2B2000202B2000E8DA20002CD42000402B2000482B2000152B2000142B2000382B20002DE9F047DFF8C0A090469AF80020002A54D12E4E914600B32D4F0024386086F85F1016E0306EA5F5B6FD3B6804EB440503EB85014860306E0881A1F80A90A4B11020A5F5A8FD396801EB85010860641CE4B296F85F00A042E4D8B8F1000F27D01C4F0024C7F8008018E01B481860EEE7A5F591FD3A6804EB440502EB85014860306E0881A1F80A90D4B110BA
:F90E970020A5F583FD396801EB85010860641CE4B296F85F00A042306EE4D84000A5F575FD0B4908600C490B48086001218AF80010BDE8F08709481060E8E700005CFF2000642B20001C2B2000282B2000C8A62000382B2000130F2700242B2000ECA620002DE9F05F824685489346824D8846DDE90A29804C804FB8350168261D41F0080CC0F800C0DFF8F8C10020CCF80000396821F001013960B9F1000F02D079494B60794B7A494FF000000B607949086012D0794878497B4B016078494FF0000008707748017878480029196E006800D1490032F61EFA01E0704802606848016841F0100101602068BAF57A5F2ED020F480102060B8F1180F2BD0E8
:F90F90002068B8F1080F20F0404034D000F180402060286820F006002860306820F4C0203060644D88202860634868604FF4C460A8604FF07C00E8604FF4A07028614FF089002860A5F55075B9F1000F21D0022020E040F48010CFE7206820F040402060286820F00600001D2860306820F4C02000F58020D4E700F100402060286820F00600801C2860306820F4C02000F50030C6E70120ABF6E4FFABF6D1FE3D48006810B14648ECF51DFE3D48006810B14448ECF517FEDFF80C91D9F8001009B10120884741484FF4D0264FF44818007B02283CD0DF2045F8A00F282033F61EFA0020A860D5F85C0340F47020C5F85C03374903200860206840F48061
:F9108900002060344828600020ABF671FA5846ACF65EF8C8F80061386840F001003860D9F8001009B102208847ADF688F8ADF67BF8ADF6ACF829490620088028494FF47A7008605846ADF68DF9264900200860BDE8F09F206840F4800020600020ABF647FA5846ACF634F8C8F80061396841F001013960D8F8341241F00201C8F83412CEE700002883330044803300781532003C2B20005CFF2000CF0F2700402B2000442B2000B90F2700482B2000142B2000152B2000642B2000382B200040833300010D1600B8A62000DCA62000242B2000542B20006C066000DF00C000182B20004C2B2000502B20000448006820B10448017821F010010170ACF6C8
:F9118200ECB8482B20005C1F200010B5002106489AF5C7FF002807D13A20ECF547FCBDE810403A20ECF5A5BC10BD09C300003EB5134CAB218DF808102178490701D5012818D1012000900346024602A90190FDF5C2FA0B480078C0F34000AFF5AFF910B140F21C7060800020B4F9021000E0401C8142FCD8207820F0080020703EBD741C2000B40728002DE9F843DFF8F4914FF44E178846D9F800004C4690F8200000F00305386F40F001003867022033F63CF921688B7FEBB3D1F8190000B311F8213F4A7899184843C1F580344FF6FF718E1A012211465CF668FC012003460090E8B22246314605465CF6A1FD23463246012128465CF618FDD7F8F842
:F9127B00000006FBD44FEA1860C7F8F8004FF47F00F864386F20F03902D9F80000D0F8191001B120210A43817F01B11021C07F0A43012813D0002000E005E0024342F004003867BDE8F8834A7FD1F8190019465CF62EFCD7F8F8000006FBD4D3E70820EAE72DE9F05F494F484D0024396811B12868007E884732F68BFF81462868DFF810814FF0000A017E4FF0080B012631B1012928D002293BD0032968D141E0C0F814A0C0F800A0C0F804A0C0F808B01DE03D20ECF5F8FB2868C268416902EB4102491C41610068118808EB800001602868016806FA01F2491C01F00701016081681443491E81602868806820B12868416900698142DCD3286841695B
:F91374000269914201D2067601E002210176204658F6DEFC2EE04FF44E10C06C10F0FF0F28D13D20ECF5C2FB2868817F012907D190F8200000F0030106FA01F05CF662FC2868807F5CF605FC286880F818A0C0F80CA0C0F810A0C0F800A0C0F804A0C0F808B0B86830B1484632F619FF2868B968007E8847484632F612FF7968002904D02868007EBDE8F05F0847BDE8F09F0000B42A200064FF20005080330010B599F5D1FF02490020088010BD000070FF200099F55EBE99F5E7BF18B50088ADF800009DF800000C4AFF280FD0931C197881420DD99DF8011003EB40004C061146B0F80300098804D4014303E00020108018BD8143118018BD00007036
:F9146D00FF200008B568469AF5CFF810B16846FFF7D6FF0148008808BD000070FF200038B50B4C607850B168469AF5BEF802E06846FFF7C5FF9DF80000FD28F8D10448A178801E09B100210180008838BD000072FF20009AF5BAB89AF5BFB810B5AEF5EDFFA5F53FFD4C484C4C007818B94C482AF6EBFC20B1002031F660FA494800E04948206010BD2DE9F041484E05460C4630684FF0000880046CD531F6A2FC002868D04348006840061FD54249081F33F6A0F80F466FF000420646514071EA06000FD032F6CBFF301A67EB0101AEF5E0FE2A683149824202D90120087001E081F8008034480C38C0E900673348334F0088398808443249097808442C
:F91566003249B1F90010461AAEF59FFF062800D1B600A8F588FB60B32078022838D32B4928680988884233D93988314488422FD3B7F541F960B331F662FE31F671FE31F6A3FDA5F5D3FC2868411C01D0801B286020482049006808602868A5F51AFC20701E4801681E48C0F89C111D490968C16010E084F80080BDE8F0812078401EC0B22070032804D0042804D13068C00501D484F80080034904480860ECE7000095FF200000002800780B280007B011F007B023516C072800A8072800BC0928005807280090092800F81E200094092800920928009C3320007C372800A0FF20007C0032009CFF2000014908707047000096FF20000149086070470017
:F9165F000098FF200010B531F6A4FC554C10B9206800B18047534801686160D0F89011A160016821F470210160D0F8901121F40051C0F8901110BD7CB54B4D0446A86B44F2036120EA0100A8636846A6F561FDDDE90001001941F10001400B40EAC1402A6A490B22F47F42030642EA13432B626A6A000A40EA01606FF30F0280B2104368624FF440402860A96B41F44241A96340F20921C5F8181128607CBD2DE9FC4105463248334EB0F900002C18706B20F0030070634FF4C060C6F82C014FF01008C6F80080C6F878014FF080077760A6F59276681C05D0B4F5800F04D32046FFF7ABFFBDE8FC816846A6F513FD009806F5A8762844B080B189C0F35F
:F917580006406FF30D0141EAC010B081009820443080B189C0F3064041EA0001B1811748A6F5A8760068010740F209200ED506F59276716B41F002017163F16B41F03001F163C6F82C01C6F80080CDE706F59476316B41F001013163B16B21F03001B163C6F874013760BFE798FF200088003200208133009409280024813300A807280002490148C8617047913528007833280010B5144C2068C00201D599F59CFB2068000304D500209AF51DF899F577FF0E48016841F01E01016031F6C7F80B49087024F67EF8002010BD10B522F640FD29F626FB0748016821F001010160BDE81040C0F51DBFA807280078153200A4FF2000681F28002D490968393C
:F9185100B10978012904D12B49814201D1CDF58DBF0020704710B5264886B00DF1040C0068FF24017B837B427BACE81E0000210091D0F80230C2880221002000F022FB1E48016841F4C05101601D48006806B0BDE81040CDF53ABE30B5164D044685B028680DF1040E4FF0FF0C017B837B427BAEE80E1000210091D0F80230C2880221002000F0FFFA28680E4A40F23451D0F80200C0B242F82010CDF55BFE0748016841F4C05101602046CDF510FE05B0002030BD00006828200009C300000006360074282000008433000A4A4FF48063401E13801023538040F233335360064B00F00700491E43EA002001F01F0140EAC12090607047541D2800C5002D
:F9194A00020099F534BD99F5AABB99F5C6BB99F56EBE99F55BBE99F571BE99F557BD99F58DBE99F5B7BC104810B581680123C1F30222521C03FA02F0401EC1F3C421491C0B4A8B4019021368A1F58071526841EA000143EA024201EA0201814203D199F543FB002800D0012010BD541D2800648333009AF586BB9AF58ABB9AF566BB2DE9FF470CAC0646B4E82110002794E8000700970197029703970124771E1E2F02D88DF8006000E0002411B1CDF8011000E00024511E0F2902D88DF8052000E0002433B1834204D9AB4202D9ADF8063000E0002430B1984204D2A84202D9ADF8080000E000249D4204D2854202D8ADF80A5000E00024BCF1000F02E1
:F91A4300D08DF80CC000E000248DF80D808DF80E908DF80FA024B1102269460348F6F531FE04B02046BDE8F087C4FF200004480E2180F8511040F25231416500F019B90000642B20000248006890F8250070470000B8FF200002480068B0F9220070470000B8FF200010B504460820A4F57EFF002804D0034944604A680260486010BD0000A8FF20000149086070470000B4FF200002480068002800D001207047BCFF200070B51848007800282BD032F600FD16490968401A4FF47A71B0FBF1F01349D1F8011088421DD300F067F800F049F800F039F80F490F48104D0A682AB102682B7892F825209A420CD000684C68297880F8251004E0616809B136
:F91B3C00287888472468002CF8D170BDB1FF2000C0FF2000C4FF2000A8FF2000B8FF2000B0FF20000149086070470000A8FF200010B504480124C460406800B180470248046010BDB0FF2000640728000548054980681431B0F922004989884201DCFFF7E7BF7047B0FF200010B50C4C04F11402A068D388B0F9221010469942007B01DB207010BD1289914201DC0020F8E7891A4843991AB0FBF1F0F2E70000B0FF200070B532F688FC194D2861194890F85300AAF639FF05F114042078AAF6A8FEA96891F824200B8C01EB420215885B1B0B8410800A8C104402B20A8491F82400401CC3B281F824306079834202D3002381F8243092FBF0F300FB1346
:F91C3500221CB24C84B2EB500F01DB641C4C8470BD0000B0FF2000642B200070B50024094D03E0FFF7C0FF641CE4B26879A042F8D8FFF79DFF044814388268017882F825100121417070BDC4FF200010B5AAF64AFF0A484179102901D91021417107480021143801708068018480F824104184BDE81040202131F67DBB0000C4FF200010B5094CA06830B92620A4F576FE2621A06031F66FFBFFF7D9FFFFF7BFFFBDE81040FFF757BF0000B0FF20000149002048707047B0FF200030F651BB70B500218CB014A208460FF675FD154D002405EBC4000DF11C0CC18AC68B838BE21CACE84E00818903AEB0F814C0A31CC289A6E80E10C1888088621C8DE877
:F91D2E0007000021234608A208460FF656FD241D082CDFDB0CB070BD00006D656D5F686F6C653A0A0000D4FF20005B2532645D202534642F253464205B2532645D202534642F253464205B2532645D202534642F253464205B2532645D202534642F2534640A00000000F8B504460821194E4FF6FF73002006EBC0029288A24203D39A4201D201461346401C80B20828F2D308290DD256F83150E41C24F00304281946F8310006EBC1008188091B818003E02046A4F5E6FD05461DB12146284631F6DDFA0021234604A2084600950FF6F6FC2846F8BDD4FF2000705F616C6C6F633A20256420253038580A00000004480068002803D103480078401C003F
:F91E27000470470000140021005D1C2000002804D00249086003490248C86470471400210011202700407C200008B5DBB2DDF808C0CDF800C0AAF625FB08BD000070B50E46104904460E48097B012916D04FF44E120021C2F8A010016821F0020101600020AAF676FB054631462046AAF6B0FC04462846AAF66DFB20B270BD002070BD000044803300542B20000148006870470000542B20000148406870470000542B20000148806870470000542B20002DE9F04F06462DED028B81B00C46DDE90DB917469846DDF830A09DED0F8A109D9AF559F886B915480470A0F80170C0F803800020DEF5EFF98DED008A4B465A4651460020DEF53BFA012C11D170
:F91F2000B9F1000F0CD0002301B005F00F01BDEC028B2809BDE8F04F4FF48C4298F538BE0123F1E701B0BDEC028BBDE8F08F0000682C2000DEF5ABBADEF514BBDEF5F4B9DEF5E5BADEF532BBDEF536BBDEF53ABBDEF53EBBDEF542BBDEF57DBBDEF575BBDEF582BB2DE9F04104468068884616461F4640070BD500212346104A08460FF623FC0F49182031F6F1FC97F686F994B1B8F1000F0FD004F1300538462F709CF5D9FB02463346414620462EF6FDFF6E600020BDE8F0812920FBE70000843727000402008164290ED2B0FBF2F0C0F5803248436421B0FBF1F04FF6FF711A60081A5860002070472920704700002DE9F04708ACB4E8E01094E800E5
:F9201900071E4C2082A4F815102046E275007E13B140F0010001E020F00100207615B140F0020001E020F00200207616B140F0040001E020F00400207617B140F0080001E020F00800207684F819C0B8F1000F01D0012000E00020E076B9F1000F01D0012000E000202077BAF1000F01D0012000E000206077BDE8F0870000601D280099F566BC99F57BBC0348C07E002801D099F5D5BC70470000601D28000348007F002801D099F5D2BC70470000601D28000348407F002801D099F5CFBC70470000601D28000748C17E09B199F5B8BC017F09B199F5BBBC407F002801D099F5BDBC70470000601D280099F5CFBC30B40C46102819D80D49087004B10D
:F921120001244C7002B101228A70002208E003EB420401EB42052488521CA5F80340D2B28242F4D3014630BC0120FFF7ECBB30BC704772FF2000FFF762B9FFF790B9FFF79CB938B558B197F517FD040007D000216846AEF5B3FF9DF80000204438BD002038BD10B5044627280CD819B1BDE81040DDF538BFDDF536FF0449042041F82400012010BD002010BD00000084330070B5A0B00446082110A85EF641F9082210A920465EF65BF9002846DB404908220E4620465EF653F900283EDA04F12000082210A905465EF64AF9002835DB0822314628465EF643F900282EDA0822294618A85EF6BEF90822214608A85EF6B9F908A90823224608465EF6AA4F
:F9220B00F922460823114668465EF6B6F969460823224608465EF6B0F926496A460823243910465EF6B2F96A46082308A910465EF6A3F90822694618A85EF613F910B1002020B070BD0120FBE738B505460A208DF800000C462846F7F5EAF828B16A46172128463DF679FB38BD2A1814F8011B401C82F874112028F7DB00202A1814F8011B401C82F894112028F7DBB5F84C0040F04000A5F84C0005F5BA70FFF77BFF012803D00B208DF80000D8E700212846E9F514FF38BD94BC20002DE9FF410D4606462EF698FB044600200090019002900390012D04D941F6A87004B0BDE8F081194890F81E03400602D441F6A770F4E741F6AD779CB194F890000A
:F923040080070CD51022694604F19A0031F615FF28B194F889002A4604F18A010BE041F6B170DDE73046A1F56FFD58B1037B00F10D012A461846D2F5C3F808B10020CFE73846CDE741F6AA70CAE70000746720002DE9F041064600240E4F11E00E4804EB8401D0F87C0600EB8105A868012805D106223146284631F6E0FE48B1641CE4B2386890F87000A042E8D80020BDE8F0812846FBE7E42520007467200070B55B49884203D05A49102031F6F7FAA3F534FB5848012105469AF510FA564E543E84E0214628469AF564FAA08A2A2844D01CDC09284CD008DC092877D2DFE800F076353D3D3D41763945001B2844D006DC0A283DD00D2863D01A28671A
:F923FD00D13CE01C283AD01D2838D01F2860D145E035284FD00ADCA0F12B01092958D2DFE801F01E3457574141454D41003C2829D006DC372836D0382834D0392848D10EE03D280CD03E282DD0502841D13CE020461EF6C9F83CE020462EF6C8F838E020469EF579FA34E02069CCF5EEFD30E0D1F572FC2DE02046BCF561FA29E0316C02E0204624E0716C19B3FAE72449097801291ED12C38C0B2D7F585FB19E020469AF522FF15E02046E6F5AEFA11E020460FF6EAFB0DE020460FF6E9FB09E02046F6F5C7FD05E02169DBE7A16809B120698847746D24B1E06800283FF475AF70BDBDE870400B482EF6F7BC10B5040001D0606A18B90B49102031F6ED
:F924F60053FA31F687FE002284F8212031F686FE606B616ABDE81040084790FD200004030081ACA32000482A2000040400812DE9FC4107460020009001900E46154638462EF663FA044685B32CB194F80201022811D001282AD03846FFF701FF002808D0D0F80D103160B0F81110B180007B28700120BDE8FC8194F88800012801D0A8B119E0062204F18A01684631F6DDFD60B194F8990080070ED5D4F88A003060B4F88E00B08094F88900E1E704E0D4F80E003060608AF5E70020DBE708B56A46FFF7B6FF08BDFEB5044600200D46164600900190012C01D0022C07D135B102AA69463046FFF7A4FF012805D0324629462046E5F513FEFEBD0420D16E
:F925EF00F551FF6A469DF80810F4E770B50C4641F6AA7502212BF69CFB7CB160B190F84E102170B0F89A106180B0F89C10A180B0F89E00E0800025284670BD41F6A87070BD2DE9F04389B006460D4690461F462421684631F6A8FD6C464FF02209222D01D82EB925B141F6A87009B0BDE8F083641C8DF800702021204630F69EFE76B16DB11F2D00D91F25641C8DF80150002003E0315C04F8011B401CA842F9DBC5F11F00002300F804806A4649464FF654501EF6FBFCD9E70323FFF7C3BF00001CB502460C4600200C4900900190097868468C4202D941F6A8701CBD04218DF80010401C1146DBF506FA047000236A4608214FF654501EF6D9FC1CBD51
:F926E800181228002DE9F05F054690F87C6090F88E004FF0000B022801D185F87CB00024DFF894904FF0040A05F148083AE0D5F8880000EB8401086898B1EA6A904230D0C4EBC407D9F870300AEB8707DA1912683AB3C1F800B02BF6EBFBD9F87000384417E0211D01208840304208D0C4EBC402D9F870100AEB82000844006810B956EA04000ED1C4EBC402D9F870100AEB8200084495F88E300768B5F88C2000214046B847641C0548006890F86B00C01CA042BDDCBDE8F09F0000A0752000E42520002DE9FF4707461646884608462EF624F904004FF000008DF800000546019002906CD094F8020180076FD594F8880001216FB320B198F80020B1D9
:F927E100EB921F0ED032464146C3F544FD14F8880F4146A2F541FD0546207A40F001002072AAE004F18A00062201A9074631F696FC00280ED014F8890F32463946C3F52AFD20783946A2F528FD0546E07940F00100E07191E020B198F80020B1EB921F0FD026B132464146C3F515FD02E04146A2F529FD054694F8900020F0010084F8900004F18A00062201A9074631F667FC002872D006224146384631F660FCE0B394F8890026B132463946C3F5F4FC02E03946A2F508FD054614F8900F20F0010020705AE04FF000094C464D46DFF8DCA012E036E0364805EB8501D0F87C0600EB8104A068012805D106224146204631F636FC50B16D1CEDB2DAF810
:F928DA00000090F87000A842E7D8B9F1000F1BD08EB1324604F10D010020C3F5BFFC00E02EE004F10D014FF0000057B1A2F5B8FC04B0BDE8F08704F10D010020A2F5C6FCEDE7A2F5C3FCF3E76A4603A94046A1F5D6F866B1324641469DF80000C3F59EFC9DF80000414647B1A2F59AFC07E041469DF80000A2F5AAFCF2E7A2F5A7FC05462846D5E710B5A2F57BFC0948006890F8740001010848D0F8B00430F618FD0549002081F8AF0481F88004C1F8880410BD0000E42520007467200010B5044601460088012202EB1020554A088004201268904720462FF66FFC002010BD70B504461420A178012902D0022903D005E0E068008800E0E089143080E1
:F929D300B22FF6E2FB05001CD014222146F5F571FEA078012802D002280BD012E005F10C00E860E16805F114060988A981E068028802E0E28905F1140621693046F5F559FE2E61284670BD10B5040013D02088000A0EF6C3FF70B10D30DCF596FB50B12046FFF7BFFF010005D0AFF2AB00D8F5C1F8012010BD002010BD2DE9F0470126814600250C464FF082083746B9F1060F22D2DFE809F0031D1D1D2D1D10202FF694FB05000FD010222146F5F523FE29461E482FF629FD29461D48D8F59BF84FF00008464608E0E08807EB1020E08003E0208807EB1020208013480268FAB1F6B1214648469047804659EA050909D016E00846FFF7A9FF0028EAD094
:F92ACC004FF088080026E6E7E07B012806D1A06820B1A07B022801D1E5F585FBA1682068DCF5A2FA4046BDE8F087000048282000407B200073F204001748006818B117480078002800D00120704714490120087070472DE9F041002405467E264FF48A780F4F13E00F48D0F8781604EB840000EB841006EB80020A441288AA4204D101EB8000414630F62AFC641CE4B23868007AA042E7D8BDE8F0812E23200018002100E42520007467200010B5044699F510FA30B925480068000702D4FFF7BDFF08B1012010BD20461BF6D8F9002010BD10B51AF6ADFC0021C0F8F410C0F8F010C0F8EC10C0F80C11C0F80811C0F8041110BD164810B5007848B10147
:F92BC50020DFF58FFE14480068BDE81040C0B2DFF56ABEBDE810400020DFF583BE10B5044699F5D9F978B90948006800070BD4FFF786FF40B1094800780F2801D0082802D10020A4F88800B4F8880010BD0000D8823300502F2000C08B3100A4FF200003490A7CC988B2EBD10F00D2002070477404200070B5044600F5A47525480068C1043CD5C0060FD594F8D90010B12248007848B91020A4F84400E06B40F04000E063204635F6FDFD94F87C0194F87811084205D094F87D0194F8791108420ED1B4F88C0140F00100A4F88C01B4F8460040F00800A4F846002046E1F58CF8B4F84600010706D440F00800A4F846002046E1F581F8687820F0040045
:F92CBE00687070BDB4F8460040F00800A4F846002046BDE87040E1F571B8682928007D33200001460020C9B2012903D0022900D13C20704770207047000070B505460679408827F6C0FA040038D00F2E06D0112E0ED02846BDE87040E1F557BAE06BC0022CD5B4F8460040F40070A4F8460018E013484079000702D511481D3000E010480078C0061AD5B4F8440080050ED594F8DA004FF6FBFAB4F8440020F40070A4F844002046BDE87040E1F528B8B4F84600810503D520F40070A4F8460070BDF42428006812280090F84A204FF4461132B190F85220D1F8040362F30F2001E00A48008AC1F80403704710B5084825F626FFBDE81040074825F6215D
:F92DB700BF054900EBC00001EB800025F61ABF000068122800B028280058C2200001460020097C132903D0072900D102487047014810387047D837270070B50446487C0D46122803D194F8DA004FF6A3FA29462046BDE8704035F652BE90F8DA004FF699BA0EB5174B8DF8001003F11D025B7909294FEA037115D0002900DB124A1168CDF801105168CDF805109DF80410092221F008018DF8041090F8DA00694650F649FE0EBD002900DB074A1168CDF801105168CDF8051090F8B8108DF80110E4E70000F424280068122800054810B590F91B003BF67FFBBDE81040002148F6F2BA0000681228001FB5022052F624F80024ADF8024028B16846E1F553
:F92EB00097FEFFF56BF91FBDBEF57EFB19484FF446120168C2F8941004601748016921F001010161016821F00101016052F69EF8E7E730B500F10904002589B0B0F809002946B1F501FFE01C00F074F830B108236A46E11C09484BF6E0FF05E0FF222021684643F688FD12256946284657F67FFD09B030BD543F20006001650034C7200070B598B0044600F1180506210CA85DF677FA062221460CA85DF691FA401C44D1594906220E4620465DF689FA401C3CD1062229460CA85DF682FA401C35D10622314628465DF67BFA401C2ED10622294612A85DF6F6FA0622214606A85DF6F1FA06A90623224608465DF6E2FA22460623114668465DF6EEFA6948
:F92FA900460623224608465DF6E8FA40496A460623243910465DF6EAFA6A46062306A910465DF6DBFA0622694612A85DF64BFA10B1002018B070BD0120FBE770B5A0B0044600F12005082110A85DF61DFA0822214610A85DF637FA401C44D12D4908220E4620465DF62FFA401C3CD10822294610A85DF628FA401C35D10822314628465DF621FA401C2ED10822294618A85DF69CFA0822214608A85DF697FA08A90823224608465DF688FA22460823114668465DF694FA69460823224608465DF68EFA14496A460823243910465DF690FA6A46082308A910465DF681FA0822694618A85DF6F1F910B1002020B070BD0120FBE710B504460848006820F626
:F930A20031FE0028204602D0BDE8104099E7BDE810403CE70000B0BB200094BC200038BD200010B51648FFF7E6FF08B1002010BD012010BD2DE9FF41114F06463F1F0C461546381DFFF7D7FF88B138680D49283000950394CDE9011007F16402A2F11001334601F120004BF64FFDBDE8FF8104B02046BDE8F04106214BF633BE00003CBD2000A40C280010B5941DCBF59AFB082084F8290010BD01209071024890F84B01D07170470000C80D28002DE9FC4790F83970054600F11C06B81CC0B240F0800100243A4848F6A7F9A87B694628F679FA0098DFF8DC8010F0030006D001281BD002281CD003280CD11CE00198A96A884200981BD9022127F6E002
:F9319B00FE3060B8F80000706095F83A00DFF8AC9090B199F80210684627F6AEFF3BE001210098EBE70221009801E00121009827F6C7FE3060A86AE6E799F8021099F803000144E8E7781C05F12C01C0B2D9F5E1FF8046DDE9001040EA4120194901EB840188671849E0020860B8F14F0F09D208F1020040EAC42048F2801108431149091D08602819641C80F83E7099F80210684627F672FF47466946304628F60BFB012803D14F2F01D2042CCCD385F842402046BDE8FC8704016000680B2800561C280000E0310000E931002DE9F041154E00F109050027B6F86400B5F803101446884202D15771BDE8F081002020F6E0FA08B10C200DE0B5F80300F6
:F9329400B0FA80F1C1F1200290FAA0F1B1FA81F1491C072902D212206071E7E7A6F8640086F84B2186F84A116771DFE7C80D28000749072081F84A010648027801209040401E4FF6C0721040A1F8640070470000C80D2800F52020000148007870470000190021002DE9F047002580460C460A2902D82FF654FE10B10020BDE8F08730F67AFF8146874A8848DFF820A2884E4FF44817B8F1090F70D2DFE808F0056F4E27292B354C7400204631F669FB0646FF2863D007F1B4074FF44060B8604FF00A0031F65AFB0125BD600A2031F655FB386820F00300304347F8B4090A2031F64CFB0CB1C7F8B850012547E03470FBE77470F9E73968C90401D509A8
:F9338D002C09D3115D0288114409B210E03968C90405D5092C03D2484630F634FFAFE7115D0288511A09B20180002900DC00210180084631F6F9FA044601E08AF800409AF8000000B104463078A04200D904467078A04200D20446092031F663FA4FF44E1641F21E27C6F8AC73204631F675FA0546092C10D01E20C6F8AC03204631F651FA484630F6FFFE28467AE700228AF80020B0F90000CDE7204631F643FAC6F8AC73EEE72DE9F041074644484FF0FF36884604687508BCB130F6E1FE0246404801E024686CB1A1688907FAD561688142F7D0A069E569C61B75EB080501D500263546104630F6CFFE30462946BDE8F0812DE9F041334F05460E467E
:F9348600B868A32804D02846BDE8F041ACF50BB82F482C03854203DB2E49102030F67CFA1EB901212C48FCF782FF7868DFF8ACC0DCF80020DCF80410002804DD411B322901DAA0F13205411B0BE07B68834206DD7868DCF80030DCF804509B1A5918A4F101047B68A3EB0103002B01DD002CECD1002EBED1711EBDE8F0411648FCF757BFB7E770B5164C2078164D297888420FD0207858B90D4800218160C16003218160091F0160A321816030F69FFE2078287070BD441E1300161D2000111D20003C1C2000181D200019450A0000A03200400D030004050081101D200080092800780928008037280010B518B19BF53AF9002010BD292010BD10B54EC5
:F9357F00F6DFFE0149087010BD9A3E2000030168843727000A5741524E494E47212120616E206163746976652074696D657220617420616464726573732030782578206973206265696E67207265696E697469616C697A65640A0000000000000000000009302700000000000000000000000000E92F2700000000000301F4012CFF2000953027000000000021332700030046003133270003000800DB302700430000005D3427000500060000000000000000000000000000000000000000000000000000000000000004000001000400020000800000000000000000000000000000000000000000000000000000000000000000000000000000000079
:F9367800000000000000000000000000000000000000000000000000000000000000000C60EA000008800C0807A4066403080120462000B002B002C05B2000E802E8022071200008030803F0B52000F003F003E4E5200000040004F8CB20007C067C0660F5200000080008F4DA2000F00AF00A00000000000000000301541C00210070B50024104D1CE0104801190A68C2F31700120E05D0930706D0496818F602FC0EE0496801600BE012F00C0F03D0496818F60CFC04E0D20602D5496818F610FC0834AC42E0D370BDE00100006C0021000301E4036C002100F1F20201AD0827004D9A0001D109270031630101550A27005DFD040201042700D5000576
:F937710001FD0D270071AE00021D0427003DC300022504270090560A10F036280098560A10FC36280089550A01ED332800719E0C0101142700699F0C022D0427004D71010235042700657101023D0427009D750102A175010071AA00024504270001700102550427004970010263042700516F0101F3182700ED6909026D042700C5F903027D04270041F9030281042700E5F70301A11A2700B1A010028904270085E900017D21270019C305014D242700AD4D0101BD242700C147040295042700F9110A019925270041110A01DF262700BDF50502AD0427008DDF0901E528270041780501A1292700497D0501572B270004AC050425B10121BDF204018E
:F9386A00452C270079BE0402C1042700A1E20802D5042700D1050901932D2700F9FE0802F104270065E10802F904270009A70C021505270005FC0B01312E27009DD6060221052700B9AB090231052700BD57060235052700195006023F0527006962060243052700B5880A01113027001D510C01793027000DB8060255052700D1B3060267052700D9D30402750527007D2F09027D052700DD8B010289052700B9970102A3052700894C0A01F134270035440A02A505270029460A017536270021470A01013727002B01A006CC33280010B500F0D9F9002010BD0000034901228240096801EA020070470000E83628001B4810B541888CB000EB8100C4AB
:F9396300680CB9184804681FF6D3FE08B912F683FB1648006800901548406801901548006802901448006803901448006804904FF48200D0F8AC00059011480068CDE906044FF0200269464FF0FF30D9F554FE04461FF6AEFE08B912F66BF90CB0204610BD0000F0362800082635008880310000A03200A0863100340441009C074100480541002DE9FE4334480078C0F3C0009DF555F900285ED0314F324D4FF4541838684FF4481478B1286840F000402860D4F8940040F00200C4F89400D8F8341041F01801C8F8341000210420D4F55CF9002003460122009023491046EBF506FA0126AB208DF8080000963346324602A930460196EBF530FA002062
:F93A5C004FF4C871401C8842FCDB79208DF80800D4F8180220F40050C4F81802012300961A4602A918460196EBF519FAD4F8880020F47020C4F88800386800280ED0286820F00040286054F8940F00F002002060D8F8341021F01801C8F83410BDE8FE830000B4072800100028007C153200001BB7004046314600F006F8002801D093F5E3BEBDE8F087044A12880A44824201DC401A7047002070470000900928000A4910B508480860094800680CF6D5FF08490020087008495A200880074946200880002010BD000026150200E43820007C372800A43320008E332000A233200004D0204600F018F80BF6B5BD0BF6CFBD204609F6E6FF204600F02FA9
:F93B5500F8BDE8F08F3D2180F8CB10204600F042F80BF640BA70BD0CF6CEB9000010B50446B0F8A40080F00400A4F8A400B4F88C20C0F38000C2F3C00181420DD10021104607F6ACFD40B194F8E000800704D594F83501401E84F83501B4F8A40010BD10B504461FF6ACFD002813D01FF6E6FD00280FD0E07B01280CD1204611F697FA204615F6F1FE002804D12046BDE810400AF660BD10BD044A0F2111700821A0F8881001201FF609B900003A292800002070BD84F554FE0F494FF47A700860FEE710B5012801D0002010BD0B4C2068C00201D587F533FD2068800301D587F5ACFF2068000304D5002088F5AFF988F509F9012010BD000000903200A3
:F93C4E00A80728002B01A001E83628000000000000000000000000000000080000000000000000000000000000000000000000000000000000000000000000000000000000000000000000000000000000000000000000000000000000000000000000000000000000000000000000000000000000000000000000000000000000000000000000000000000000000000000000000000000000000000000000000000000000000000000000000301588437280070B5A4F5ABFF0024104D1CE0104801190A68C2F31700120E05D0930706D04968A5F54CF80EE0496801600BE012F00C0F03D04968A5F556F804E0D20602D54968A5F55AF80834AC42E0D342
:F93D470070BD60000000D8372800030164D837280090560A10F036280098560A10FC36280089550A01ED3328009D0E02017D342800217301026535280035F10802D135280061030902E135280075EA0802F1352800A1F40802013628009DF9080203362800ED790A0299362800080600089D3628000601044106270003050F001000000200008001001900000000030184FE031C00210008B509F02DFDBDE8084000F01FBE000070471CB5012805D0C64C022807D0032810D12FE0F2F666F83AF6A6FE0AE0002000F075FA00F09FF9206840F0010020600BF624F8002000900246AFF23B0101906846FAF560FFB8480B210170FF218171B648018821F0CA
:F93E400010010180B548016821F480710160FCF580F8B24930B14FF4967008601CBDF2F636F8D1E70120F8E710B500F0C8FA002800D0012010BD08B100F0CBBA00F0D2BA10B500F0A2FA002800D0012010BD08B100F0A3BA00F0AABA00F04CBA10B500F05CFAC0B210BD10B500F065FA80B210BD10B500F06EFA80B210BD10B500F077FA80B210BD10B500F027FA80B210BD944AC2E9000170472DE9F05F0E4691498046002017469946DDF828A005468B460C6812E02178B1420CD16178B94209D1207930B161884B4652464046F8F67DFE00E0FD2010346D1CEDB2DBF804108D42E8D3BDE8F09F2DE9F0417E4B0246002509CB2C46294614E0468817CC
:F93F390088BE420DD14678012E0AD0866846B1457853890178D0F808C0D2682846E04706E01030491CC9B29942E8D305B901242046BDE8F0818270C37041600021017281724172FE210170704700210172817241727047007A7047017A29B14168427A807812FB0010704700207047017A00290AD0491E0172417A491CC9B24172C278914201D300214172704770B504464068A37AA57813FB050058F654FB207A401C2072A07A401CC0B2A072E178884201D30020A072012070BD30B4C378047A5B1E9C4201DA30BCE0E7002030BC704730B4037AC478A34201D230BCD6E70020F4E770B505461C464B70FFF7E6FF002806D129466C70BDE870400222D6
:F94032000846E7E770BDC0B280F665B970B50D468AF6ACF97DF633FA040015D0E07B002812D0206D4189C0888900B1FBF0F0401E80B2854200D9054694F6A9F8216D0D81BDE8704094F6A7B870BD00F0DCB800F0F1B810B50DF673FC40B924480068002805D001200DF6D2FC002800D0012010BD204800780A2801D00020704701207047022100F0E3B8FEB514461D466FF0010601280AD0D2B100F026F9009012233246002128460AF632FFFEBD01A83DF6DBFC44B11220009033460022294601A8B4F66AFDFEBD01A8B4F682FDFEBDBDE8FE400AF636BF0849088070470000BC29280074072800280028006C07280040212000B86E2700A4FF2000FA7D
:F9412B0020200010B501783E290AD12F4A81781379994205D2126802EB8101096801B18847032010BD294810B508300178C90703D08189007900F08BF83AF6F5FCAFF23B002349086010BD0120704710B50446C07828BB00F0D9F8A1680160A1898180E07900F0EDF8608B00F0F8F8A08B00F003F9E08B00F00EF9A08800F0C0F8134C0834207840070BD500F0E0F86188884202DDA18C207F01E0A189207900F058F8012010BD10B50446C07858B9E08800F0D5F8208900F0E0F8608900F0EBF8A08800F09DF8012010BD01207047C06E2700E828200010B593F6DEFF0446C00701D138F6F5FD204610BD10B5044693F6D7FFE00703D1BDE8104038F607
:F9422400EBBD10BD2E48406A40421821B0FBF1F080B2704710B585F648FB93F6BFFF28490C6893F6BFFF85F64DF9204610BDA1EB0000010102D540F07040704720F07040704710B50446FFF7E5FFA04201D200F18050001B10BD3FF661BF10B571F688FB002800D0C08B10BD70B5164CA076E0769EF654F9154D296860F30F21618294F91B009EF64BF9296860F30F21A18270BD10B50C4C60769EF641F90B49096860F30F21218210BD10B58AF64EF828B190F8DA00BDE810407BF6C3BF7F2010BD00A0320088803100681228000483310050490860704710B540B1FFF7F9FF4D4810210068BDE8104093F628B84A48F4E7484800687047474800680818
:F9431D00B1008870474FF0FF30704743490968002900D00880704740480068002800D0001D704710B506223C4B0021521E1C680C44491C247984540629F7D310BD3648006808B1C07870474FF0FF30704732490968002900D0C87070472F48006808B1408970474FF0FF3070472B490968002900D0488170472848006808B1808970474FF0FF30704724490968002900D0888170472148006808B1C08970474FF0FF3070471D490968002900D0C88170471A480068002802D0807800F00100704716480068002803D0817841F001018170704712480068002803D0817821F00101817070470D48006818B1807800F0020070474FF0FF307047084800680C
:F9441600002803D0817841F002018170704704480068002803D0817821F0020181707047F06E27007C7F2700064A01231370064A1370064B02221A70054A00231360054A13607047026F2700036F2700768727002C712700787027007047000070B5144D2C6888B0092320468DF80E3058F69AF819238DF81630B5F85C308DF804301B0A8DF8053001ABADF80C00022604934FF488722346074908480294ADF8146002F08DF902A930460EF041FF2C6008B070BDC46C2700BC4127000B42270038B5114B40F214521A80104B00221A60054608B10DF0D8FFFFF7C2FF0C480D4C09F080FC1EF0CCFA0AF0C4FC01200CF0E5FD094B094A1A60626812B92897
:F9450F004601F011FB0123636038BD50842700407127005F4827007870270050712700B106210038B5051F00F10C043EF66AFF45F8040FA542F9D138BD10B50446FFF7F1FF31223023A271E3712272637210BD02289ABF024B03EBC0000020704700BF2C662700002070477047000070B5114AD2F8273092F826201D2010FB023040F23115834213D01C7E00220AE0D3F8191001EB02110E88AE4202D14988052904D00132A242F2DB1D33EBE7012070BD0020FCE700BF686627002DE9F04F9DB0CDE901234FF6FE739842064603D13F4B1C68002C75D14FF6FF7505230027DFF8F0B0ADF81C60ADF82010ADF81E508DF833303C469BF826305FFA87F8B2
:F946080043453ED91D2303FB08FA4FF0000901E009F10109304AD2F8272052445FFA89F3117E994225D9190100910393D2F819200A441188B142EBD15468002CE8D00022114605A8A0470028E2D0224B0199D3F82720009B5244D2F819201A44039B528895B201B10A80029A1AB102999DF833200A70DBF82720924401379AF818209A42BAD9144B93F82630434598BF0024104B5A68A2B14FF6FF739E4217D1112D03D80E4BEB40DB070AD405F581433E339BB2052B04D941F205039D4218BF144620461DB0BDE8F08F4FF6FF75E0E71446F6E700BFC47027006866270032000300F0B5124AD2F8273092F826201D2515FB02354FF6FF770022AB421574
:F9470100D01E7E002100E00131CCB2A6420CD9D3F8194004EB0114B4F800C0BC45F3D164888442F0D10132D2B21D33E7E71046F0BD686627001FB5FFF7A0FC254A2548138901339BB2012B138112D1FEF527F8002003F0DAFF0023009332220321782004F04DFD4FF47A611B48FDF5FFFF04B010BD62F0D6FE01F0BAFE174918481CF0D0FF04A9C82301F8013D01224FF47E2005F073F8FFF772FC41F26F7440F63543584342F21073B0FBF3F0A04202D9F8F65FFDFEE701211420F8F682FFFFF75EFC40F63543584342F21073B0FBF3F0ECE700BFC47027008C842700250A21006866270038B51C468DB228B9049B214628464CF622FB38BD2BB1049BF7
:F947FA00214628464CF60DFBF7E7284604994CF623FB2046F1E70000F8B51D4C05460E460DF03EFEE368AB42074603D12369B3420ED1F8BD63B115B12369B3420AD00021144A08464CF6C2F90023E36015B9F0E7002DF1D1321C104B18BF01229A7560221A840E4A1289520709D40123C4E903362846084A0021BDE8F8404CF6A7B9002FF3D16269002AF0D130221A84EDE700BFC4702700010C2100C46C27006866270010B5029CB9B90D490988914213D153B101229342227008D002218B4202F10100A15403D110BD1A46F6E71846431C03222254D8B2F6E7FF20F4E700BF686627002DE9F3414FF6FF75AB4204460E4617460ED0234C246924B900C6
:F948F30024204602B0BDE8F08164256B43A44602B0BDE8F04160471C4B93F826208242EED9D3F82710C0EBC00300EB830319440022087ED3B29842E2D9D1F8193003EB02131D88B5421BD15D88BD4218D1D3F80480B8F1000FD3D00025314600952B463A4620461CF0AEFB06460028C8D02A462946C047044628B930461CF0EFFBC0E70132D7E70124BCE74866270068662700042808B505D100210846BDE80840FFF73FBF022802D100210120F6E7032803D1BDE8084001F0B6B9052805D1F9F607F9BDE8084001F004BD08BD000073B50C46054610B3C379032B1FD1154EB369F3B14B78FF2B1BD18B78042B18D1CB78082B15D113F06BFBCDE9000121
:F949EC00DDE900232146DDE900232846B369984713F05FFBCDE90001DDE90023DDE9002302B070BD95F90800214602B0BDE870400EF051BC00BFC47027002DE9F8435E4C236918783EF67DFC10F0FF0F0DD101214FF41670F8F63EFE236918783EF671FC10F0FF0F01D105F04AFC00F040FB04F01EFE524B5B6803B19847514A5249524F5348534EDFF8AC81DFF8AC915FF06FFE04233B70082333700A2388F800304D48102389F8003014F07CFD054641F20F30FFF723FEC0F57F50484B3F3084B241F20F301C80FFF719FE454B241AA4B241F207301C80FFF711FE424B241AA4B241F203301C80FFF709FE3F4B241AA4B241F20C301C80FFF701FE3CC9
:F94AE5004B241AA4B24FF498501C80FFF7F9FD394B241AA4B241F209001C80FFF7F1FD364B241AA4B241F206001C80FFF7E9FD334A201A83B21380324A013B9BB2138099F800209B1A2F4A9BB213802F4A013B9BB2138098F800209B1A2C4A9BB213802C4A591E11802B4A991E11802B4AD91E1180043B2A4A9BB213803A789B1A284A9BB2138032789B1A274A9BB21380FF35264A013B9BB2ADB21380FE356FF0FE0295FBF2F5224A2B449BB21380214A591E11806FF47A7213441F4A1380BDE8F88300BF4C3827004866270026382700C46C2700026F2700BD0E2100036F2700686627003A872700388727002C8727002A8727003087270028872700D9
:F94BDE00268727002487270022872700D08727007887270074872700CC8727000E8C2700AE8B2700188B2700B08B2700228C2700208C27000C8C2700C48427007088270076872700D2872700044A92F820301BB1013B82F82030704764F060B9C4702700014BD869704700BFC470270008B5382200210848FDF516FE0323002206490548FDF570FD28B901210248BDE80840FDF57EBD08BD548427009D0F2100132813B533D0172849D070BB01220DF107014FF47E2004F09FFD10B9FF238DF807309DF8073013B1013B8DF807309DF8072002F13703DBB2312B1CD8FFF7E1F940F63544444342F2107094FBF0F4D4F57A7448BF32241A491A480423005D
:F94CD70022FDF533FD21461748FDF544FD002001E041F6AD7002B010BDC82A0FD8FF2301220DF107014FF47E208DF8073004F0B9FD012004F020FC64F00EF9E7E70020F8E70B78002BE2D100F0FCFC0028DED101F006F80028DAD11423024601460DF0B7FBD4E7790921008C84270000B58BB0242101A8F8F6F2FA1CF01AFA0BB05DF804FB000070B5134C134E226801322260002556F8253003B198470135042DF8D121683C22B1FBF2F302FB13131BB9FFF7DDFF60F08DFF094CE36F03B19847D4F8803003B19847D4F8843013B1BDE87040184770BD9C67270030712700C470270010B50B4A0023114652F8234084420AD00133042BF8D1002351F83C
:F94DD00023409A001CB9044B1344D86610BD0133042BF4D1FAE730712700C470270010B50023054A194652F82340844208BF42F823100133042BF6D110BD3071270007B50B48FFF7ECFF0A4B03220DF106014FF441701A704CF615F8074B0120D86100F0B8FAFFF71EFB03B05DF804FB00BF690E2100E9822700C47027007FB50C46132829D8DFE810F02A0028002800280028002800ED002800280028002800F40028009300CC00DB00D600E90014000C01804A8148002382F8603082F86130062102AB5C3200884BF6C2FF062802D1BDF808300BB164F02AF804B070BD0B88BBB94968744A4FF47A70B1FBF0F300FB1313D165002BF0D1704800880DA3
:F94EC900F106035C3206214BF6A4FF0628E4D1BDF80630E0E7694D4FF6FF72934228880AD1654A002382F8603082F861300DF106035C320621E7E70A7AADF808302AB16FEA43436FEA5343ADF8083063688DF80A301A0A1B0C8DF80C3063898DF80B200138C01A02AA0DF10603052180B24BF671FF0528B1D1BDF80630002BADD14E4E6289B6F860309A42A9D3B6F86030628928889A4203D80DF10603494ACAE70138C01A5A1C0DF1060180B2A6F860204BF66CFFEAE700F0CDFB404D064638B1EB6963BB26681EB13F4B30221A800126A3683E4A6B61128952070CD5EA6952B9226802B93BB100210846FFF72FFC00210120FFF72BFCEB69206893B155
:F94FC20000287FF46FAFE86100F0EAF90EB100F0F5F9304B1B68002B3FF464AFE869984760E70026D6E70028EDD15BE7244BD3F88830002B3FF456AFA1882068984751E700212068FFF704FC4CE72348FDF5CFFB10B12148FDF5C2FB1E4B9B69002B3FF441AF2068DBE7164BD3F88C30E1E7488863F048FF124B0122DA6133E70B680A798DF80830190A8DF80910190C1B0E8DF80A108DF80B308DF80C200DF1060302AA052140F203304BF6D8FE1BE70B4B1B78013B012B3FF616AFFFF7C8FE12E700BFC4702700C4842700207127007C8D2700686627004866270054842700E982270007B5074B074A5960074B0193074B00930749084B0EF0DCFE035A
:F950BB00B05DF804FB00BF54712700D95527005D55270035552700215527006955270008B50B480FF6F1FF0221642010F61FF8084B18600420F7F6B3FF2021084661F017F84FF46120BDE80840F8F6CCBD00BF003827007871270010F651B82DE9F8430E4E81460025344636F83530413B092B4FEAC50707D806EB0708D8F8040057F63FFAA8F80200E35B4B4502D1E019BDE8F88301350B2DE7D10020F8E7A0672700F0B50B884F896FF471629A18062A85B006460C4625D85C4A0025158040F61272934203D040F61572934247D13846F8F6C9F80546002800F0A380628900920346E168002010F09CFBE56060812146304664F048F904462846F8F6E3
:F951B400B6F8204605B0F0BD6FF4047C03EB0C02062ACD682ED8454A4FF0010CA2F800C040F21222934203D040F2152293421CD10DF10E023946284605F05DFBBDF80E2001460546E068FDF53AFBBDF80E3063812846F8F68CF8237843F4706323802146304664F012F90446CBE7DBB243F470630B80F6E76FF400741A19042A02D805F0A8FAF0E76FF440729A18022A02D806F034FBE8E72D2B0AD005D8042B3AD02A2B22D00124ADE7322B2AD0352BF9D11846FFF757FF044660B1428840680021FDF506FB62886068BA4228BF3A462946FDF5F6FA164D6B88DBB100221146304600240DF007F96C808CE7FFF7CFFC044608B1822486E7FBB22A463101
:F952AD00460FF058FA80E7FFF7C3FC0028F3D0F9B228460CF04FFF002476E7022F08D16A782B7843EA0223034A9380F4E780246BE70D2469E77C7127002DE9F043814685B080200F4615461E46F8F612F8044680B11F4B1B88012B2CD10DF10E0231460C9805F0FAFABDF80E20802A804603D9F8F601F8802519E001462046FDF5A3FA4046BDF80E60F7F6F6FFEDB245F40075EEB12346324629463846B9F1000F13D0F7F65CFC05462046F7F6E5FF284605B0BDE8F08380230093324603460C99012010F0B5FA0646E3E7F7F63FFCEAE78125E9E77C71270008B505483DF6E4FE082200210348BDE80840FDF575BA00BF41182100C884270020B90448BF
:F953A6004FF41971F7F646BC40F265210148F9E7F86727005C6A270007B5084883889B0708D502AB064A43F8042D03210422C088F7F60EFC03B05DF804FB00BF7C7127000100FFFF6FF4716C01EB0C02062A0B4604D80A4B00221A8064F076B96FF404728A18062A06D8054A01211180D9B241F47061F1E7C81E18BF012070477C7127007FB58378013B0546052B00F2DD80DFE813F006008C009100B200D000D600AB886FF4716C014603EB0C02062A31F8040B06D8664B00221A8063F0C6FF04466DE06FF404769A19062A07D8604ADBB2012443F470631480AB80EEE76FF400741A19042A02D805F09EF9E8E76FF440729A18022A02D806F0DEF9E0C3
:F9549F00E7042B19D1EA88012A4AD8EB681B88012B4AD94F4928698B88012A05D11B0A0370EB681A8000243CE003708B882A691B0A5370EB680222F4E71846FFF71CFE0646002833D0AA884388162A18D12BB9414B1868706057F661F870807488EB889C42E0D9F4B1E8687168E21A0488A242A8BF2246028019442869FDF5ABF9D2E7182AEBD1002BE9D1334BB3F85C308DF800301B0A8DF801300223C0F804D04380DCE70724204604B070BD0D24FAE70124F8E7011D0088FFF701FE83E7274E336834463BB1AB89EA899918B1F5007F0ADD1124E7E74FF40070F7F6D2FE30600028F0D10924DEE72068A988E18018442969FDF570F9AB89EA89134487
:F9559800A38093E7174E3368002BE4D00488102200216846FDF569F9F388ADF80030336803930025B388ADF80A30694620460195FFF7C7FD04463068F7F6A7FE3560B4E7064B808858800CF03CFF6FE781880088FFF7FFFE39E70424A7E77C712700C46C2700C88427002DE9F0430C4687B018B1042871D0042047E0CB7B394D012B288042D1384B9B680BB108469847A668364F002E3CD0364B4FF448721A80E388EB806B880BB917236B80012000F038FADFF8C0800026BB5BEA880BB1934209D1BB19BA536A885A802168062208EB0600FDF504F90A361E2EEDD1C82300933022002324212068F7F670FC002303930593A368049303B1E388ADF80E11
:F95691003006A8236840F8103D63F098FE002007B0BDE8F083B04607F10409B95BEA88914207EB060309D127F806800622A3F80280002109EB0600FDF5DBF80A361E2EECD100263046EE806E8000F0ECF900F02AFB1423A289314630460CF0DCFEC7E70846FFF798FED3E700BF7C71270048662700D08427007C8D2700D4842700014B9878704700BF7C712700024BD888003018BF012070477C712700024BD88808B1F7F6AFBA70477C7127002DE9F047064617461D468946F1B11FFA83F808F1070080B2F7F6E4FD044608B30023A0F800904380A0F8048083712A4639460730FDF580F82246B0B20121F7F676FA2046BDE8F047F7F6CEBD064B1B7AFC
:F9578A00DB0707D513463421AAB280B2BDE8F047F7F635BABDE8F0877C7127000E4B1A8842701A88120A82705A88C2705A88120A02719A8842719B881B0A83710623C3710423037200234372FF2383720323C3720B230370012070476866270070B5ADF5547D0C46A0F14005002119A807F7C4FC214619A811F8012B09F707FB0024B5B9F8F6D9F9694619A809F738FB08A9442224F003001EF068FA08AB04F003010E4A194468461EF06EFE0DF5547D70BDB5F5007F2E4628BF4FF40076F21C22F0030254A920461EF050FA324654A919A809F7DCFA3444AD1BD2E73C6D270010B503780B2B1ED1827843780F4903EB02230A889BB29A4215D10279C370
:F95883007803EB02234A889BB29A420DD1847942798988C37902EB042292B2914204D1052B94BF0020012010BD0020FCE700BF6866270008B5034A0349044808F0A6F9002008BD291A2100A91A2100E9192100024B1B6803B11847704700BF4471270070B5184C2588264685B1012D0AD1164C627D022A01D004F027FF637D012B01D001F0E4F83388013B338070BD0F4861F007FE0F4B0F4910481D60A52200F058FF00F0E4FD0D490E481BF0FAFE2146C82301F8023F01224FF47E2003F09DFFF7F696FCFEE79C6D2700386E27009C71270044712700B6422700ED422700250A21006866270037B5104D2C881CB1013C2C8003B030BD0D48FCF511FF4F
:F9597C002346322203217820009403F03AFC2946FA2301F8023F01224FF47E2003F06FFF04232B80044B044A1A60E4E700BF9C6D2700F084270044712700251B210038B5144C23880BB1013B23802388092B0CD1114B93F83820012A07D1002183F838104FF47E200D4903F04AFF258885B9FF2301220949A3704FF47E2003F040FF074B05481D6061F08FFDBDE83840FFF787BE38BD9C6D27009C7127009E6D27004471270070B586B01222002101A8FCF52BFFFF238DF8053004238DF8063008238DF8073003238DF80830194E194D06238DF809300024304656F6B2FD01302044284406F0C4FFC4F3460306AA134402340C2C03F80E0CEED10F4B1B51
:F95A750078012B18BF002301248DF810308DF81140FFF748FE002814BF204600208DF812000E230F2101A88DF8043001F039FA06B070BD00BF044327009E702700F271270008B538B901F028FA04F0ACFEBDE8084005F016BFBDE80840FFF7A6BF07B501220DF107014FF47E2003F078FE10B9FF238DF807300D48FCF560FE024680B10B48FCF552FE4FF47A710848FCF534FE084B02221A80074B084A1A6003B05DF804FB042306490148FCF511FEEBE79C7127009C6D270044712700FD1B2100151B210030B5012185B005460846F8F640F83C4C3C4901224FF47E2003F040FE05F02CF8394B3A493A48009440F23F2200F036FE012002F0CFFD01F0BF
:F95B6E005FFE00F001FF04F0FFF9314B31493248009440F24B2200F025FE1BF0B3FB2F4B00904FF413722B492D4800F01BFE40F6040340F24F2227492A4800F013FE43F230134FF414722349264800F00BFE012340F251221F49244800F004FE0423009322481C49012340F2522200F0FBFD02A83DF6A3F81DB11BF089FB1BF0CDFBFFF771FF1B4B2E22302131203424987019705A70DA701C71174B1871174819705A709970DA70FCF5CDFD10B1134861F082FC0423002211491048FCF58CFD28210E48FCF59DFD05B030BD324327009E6D27000C432700B642270018432700AA3827003B4327005D4327006F432700814327009670270086702700F012
:F95C6700842700C920210070B53520F7F654FB0446E0B1144D202200212846FCF5FEFD204600F0A3FB35284FF0140216D121462846FCF5EBFD0D480D4E56F68BFC411C0C222944F01CFCF5E1FD0023F3732046F7F634FB074B0848186070BD00212846FCF5DCFDF3E700BF9E702700044327009C6D2700C46C27009F6D2700024B0122C3E90722704700BF9C6D270038B5074CE36B03F5617504F063FE854201D2FFF7EDFF04F05DFEE06338BD00BF9C71270010B5064B00241C6201F0F6F8224620460121BDE8104060F020BC00BF9C6D27002DE9F0414A4E737D022B86B000F08D80484C06228DF80320626A012A04D1012B02D10020FFF7ECFEDFF850
:F95D60002081424F0025404656F627FC01302844384406F039FEC5F34603234402350C2D83F82C00EFD13A4F3B4D3B78012B18BF002384F83230012384F8333084F8343084F836308DF80E30ADF80C300DF103030293FF238DF816300F23042202A9ADF8143002202D4B84F8352004934AF6F7FE092328688DF80E3056F6EFFB2B68029319238DF81630B5F85C308DF804301B0AADF80C008DF80530022001AB02A90493ADF814004AF6DDFE636A012B02D0E369012B12D1002201210320E26160F0A8FB04F0D1FD164BD863707D00236362431E5842584106B0BDE8F081236A002BF3D03B783BB90E4BDD6B04F0BDFD05F561758542E9D90022012104ED
:F95E59002060F089FBE3E70020E7E700BF386E27009C6D27009E702700F2712700C46C2700C46D27009C7127000443270038B51A20F7F61EFE404CB4F9423000B2A4F840000BB9A4F84200B0F5FA6F39DAB4F844301A200133A4F84430F7F60AFE00B2B0F5FA6FA4F8400004DAB4F844300133A4F84430B4F84030A4F84230B4F84630F3B9B4F84430012B03D8B4F84830042B16D92A4DAA780123FA2AA4F846300FD9284B9B79012B04D100221146104602F064FDFFF7E2FD012384F838300A232B8038BDB4F84630012B1ED11C4D022384F83830AB780BB1013BAB70AB78FA2B21D9184B9A79012A17D10021084602F045FDFFF7C3FD00F03FF9012356
:F95F5200EB61FFF7EFFE01F091FA01F0F9FA0023A4F84430A4F84630A4F84830ADE700221146012002F014FAE5E7084B084A196891421FBF01222A80064A1A60E7E700BF9C7127009C6D2700386E270044712700251B2100A91B2100F0B589B0044616460F4612F083F8CDE90601DDE90623DDE90623A3890596627F0492A28A0392628A02926289019222892C4D00922C492D4840F2C93200F0F4FBEB6C0133EB642A4B5B7D012B47D06289A0894FF6FF739A4200F1FF3005D103288CBF0020012009B0F0BD032834D832463946204600F0CAFC20461BF093F812F049F8CDE90601DDE906014FF47A720023A4F658FC4FF47A720023A4F653FCDDE9060E
:F9604B0067EB6C013B144601934FF47A72002330463946A4F646FC234600920A490D4840F2FE3200F0B0FB0B48074940F2FF3200F0AAFB0120C6E720461BF063F80020C1E700BF9C712700B642270097432700386E2700D6432700F3432700164BDA79012A84BF0122DA71DA798AB11A8B033A92B241F61D418A4284BF1E221A835A8B033A92B241F61D418A4284BF1E225A83DA7D023A122A84BF0B22DA759A79012A84BF01229A711A88B2F5247F3CBF4FF424721A80704700BF386E2700234A138810B543B1013B9BB2032B138006D1BDE8104003F021BC1E4A136010BD022B20D1FEF70AFE04F04AFC1A4CE06004F06CFC206104F06FFC2075FFF760
:F9614400B0FF1C2221464FF47D2003F094FB1C2804D05C221249124800F039FB00236371BDE81040FEF7EBBD002BD9D1FEF7E7FD5A220C494FF4782003F07DFB5A2804D069220649094800F022FB024B00221A60E6E7F071270048712700386E2700FC43270037442700C886270057442700034B044A1A60044B05221A80704700BF4871270049232100F0712700034B044A1A60044B0F221A80704700BF4871270049232100F0712700802938B505460C4617D80A4601464FF4792003F03DFB844201D1012038BD0123224629464FF4792003F0AAFA8442F4D09D220349034800F0D7FA0020EEE700BFFC4327007F442700502970B506460D4628D81538
:F9623D004C50220021201DFCF51DFB5DB9A57052221149E5704FF47A2003F010FB522809D1012070BD01232A463146201DA370FCF501FBECE70123522207494FF47A2003F075FA5228ECD0B6220449054800F0A2FA0020E6E7F0712700F2712700FC4327009E44270070B5134C0D46064650220021201DFCF5E7FAA5B9A5700F48E570FCF578FA10B10C4861F02DF90C490A4803230022FCF537FA03210748BDE87040FCF546BA01232A463146201DA370FCF5C2FAE3E700BFF0712700447227001166270010B5F7F65EFC04F05FFB284CE06004F081FB206104F084FB1C22207521464FF47D2003F0ABFA1C280DD001231C2221464FF47D2003F01AFA6E
:F96336001C2804D0E2221C491C4800F047FAF7F63CFC54221A494FF4792003F093FA54280DD00123542216494FF4792003F002FA542804D0E8221049104800F02FFAF7F624FC5A220F494FF4782003F07BFA5A280FD001235A220B494FF4782003F0EAF95A2806D0F12204490748BDE8104000F015BA10BD386E2700FC4327003744270044772700C886270057442700024B01225A71FFF799BF00BF386E270010B50146044635224FF47C2003F06AF950B93522FF212046FCF54AFA4FF48B720249034800F0ECF9352010BDFC432700BF44270038B5304CFEF79AFC52220021A01CFCF535FAA11C52224FF47A2003F0D7F952281EBF0023A370E3702771
:F9642F004C542200212046FCF524FA214654224FF4792003F0C6F954281CBF00232370204C1C2221464FF47D2003F0BBF91C2822D1A36801331FD0E379FF2B1CD0FFF71BFE194C00235A2221464FF47820637003F0A8F95A2802D12378142B1CD95A2212491148FCF5EEF91148124940F2631200F098F9002038BD0F4D0A4C0FCD0FC495E80700012384E8070040F2531209490A4800F087F9D4E70120ECE7F071270044772700386E2700C88627004C3F270025452700FC432700C0382700E2442700F8B5144D144E0FCD3446D6F808C0B77D0FC495E8070084E80700104CC6F808C05A2200212046B775FCF5B4F90123542200210B486370FCF5ADF944
:F9652800F7F64AFB00210846FFF77FFE00F0E9FFBDE8F840FFF7DFBE00BFC0382700386E2700C88627004477270038B52D4D2D4C0FCD0FC495E807002C4D84E807005A2200212846FCF589F901245222002127486C70FCF582F92346522224494FF47A2003F0EFF8522805D040F29D122149214800F01BF9542200212048FCF56EF9012354221D494FF4792003F0DBF8542805D04FF4D2721749174800F007F900F0A1FF01231C2210494FF47D2003F0CAF81C2805D040F2AB120E49114800F0F6F801235A2209494FF4782003F0BBF85A2807D040F2B31207490A48BDE8384000F0E5B838BDC0382700386E2700C8862700F2712700FC4327009E4427D2
:F9662100004477270037442700574427001FB5164B012400211C201C705FF076FD224621464FF47A10F7F634FA52211D205FF06CFD02AB21464FF47A724FF47A105FF09CFC039A4FF6FC739A4288BF0393002300930121DDE902320320F7F64EFB0320F7F660FB04B010BD00BF7C722700FFF7CEBF07EE900ADFED166AB8EE677ADFED157AB4EEE67AF1EE10FA67EE277ADFED126A17DB77EEE67A9FED116A9FED117AA7EE867A9FED106AF0EE477A87EE867A27EE077AC7EE267AFCEEE77A17EE903A98B27047B1EE047A77EE877AB2EE046AECE700C023440000C84200FF7F4700405E4465AF1A4E005CC14708B5FFF7C1FF00F117031E2B4FF2080308
:F9671A0013D900F10801091101F57041994238BF19464FF6F973994228BF19464FF470420320BDE80840F7F6F5BA1946F6E7000070B50F4C0E462378054640B1012B01D0FFF768FF3046FFF7D3FF257070BD002BFBD020700320F7F6E3FA29461D205FF0D7FC2A464FF480411D203CF66BFDECE77C72270010B5044655F612FF2044A042037803D82F2B07D1013007E02F2BFBD05C2BF9D00138F2E75C2BF5D010BD0EB403B503AA52F8041B0192B0F6BFFC02B05DF804EB03B070470CB4F7B508AD0746084655F8046B114CFFF7D4FF3346024604F1800620460E49FFF7E1FF01952A46394604F580753046B0F6A0FC3346224628460849FFF7D3FF00B1
:F9681300212A4608466EF6C1FF03B0BDE8F04002B070477D722700584527006145270038B5034C002525601AF088FCA58038BD8074270070B51E4600231446C376054681811046314605F033FF3146204605F074FF3246207021462846024BBDE8704012F018BA752A210073B50BF00DFE054638B9214C206810B1F6F64AFD256002B070BD1E4C2368012B08D1A38801339BB20A2BA38029D900232360A380A06808B11AF04CFC00261648134DFBF56FFFA68033460096012240F6040130461AF0F2FBA06050B12A6842B101212160298981824677AB88A97AFFF7ADFF28680028CED0F6F616FD00232B60C9E70548322102B0BDE87040FBF531BF6C85DD
:F9690C002700807427002C852700F7B506460D46ADF800008DF8021004F04FF8124BDDF800C01A6800231C4652F8337002EBC301BC45496802D1CF1D874211D802EBC4077F688F4288BF1C4601331E2BECD102EBC40322F8346058609D70012003B0F0BD0020FBE700BF2885270010B50B4C23681BB9F0205FF0E3F92060F02200212068FBF579FF0423002205490548FBF5D3FE0548BDE810403CF6C1B928852700BD2A21002C85270064852700F0B5032A85B006460C4615464AD91146204605F0C0FE002844D12946204605F075FE778A0BF05EFD87423BD06178708AFFF796FF002835D02A46214601A805F060FF019D75B3BDF80A305BBBB3895AC4
:F96A05001E012A21D81448FBF5D0FE10B11248FBF5C3FE124C206808B1F6F680FCBDF80830A380738A23810423A3720D4B0A485A7925603223B2FBF3F103FB1121C9B205B0BDE8F040FBF58FBE284605B0BDE8F040F6F664BC05B0F0BD2C8527006C852700648527001FB501A805F05AFFBDF80A30022B21D01148FBF598FE10B10F48FBF58BFE0F4C206808B1F6F648FC019B23600120BDF80830A380FDF75EFD038823810423A372074B0548597901F6AC5104B0BDE81040FBF557BE04B010BD2C8527006C852700648527001FB501A805F05CFFBDF80A30022B21D01148FBF566FE10B10F48FBF559FE0F4C206808B1F6F616FC019B23600120BDF895
:F96AFE000830A380FDF72CFD038823810423A372074B0548597901F6AC5104B0BDE81040FBF525BE04B010BD2C8527006C8527006485270010B5013A431E013950FA82F013F8012F11F8014F834282EA04021A70F6D110BD73B50130012501AEEAB2002310F823409C550133042BF9D111B1C2F10402D2B20023D41804F003040DF1080C644414F8044C00F823400133042BF2D10135042D00F10100E0D102B070BD10F0800F4FEA400018BF80F01B00C0B270472DE9F74F0446884600F1100794F8009094F801B0A67894F803A089EA0B0080EA060282EA0A03FFF7E2FF89EA00055D40EDB28BEA06008DF80450FFF7D8FF8BEA00015940C9B286EA0A4D
:F96BF700008DF80510FFF7CEFF70404340DBB289EA0A008DF80630FFF7C5FF4240D2B28DF80720B8F1000F26D089EA0600FFF7BAFFFFF7B8FF81468BEA0A00FFF7B3FFFFF7B1FF064689EA0000C0B2FFF7ABFF89EA000946405FFA89F9F6B285EA0905714083EA090956408DF804508DF805108DF806908DF80760042220460DEB02010434FBF5FBFDBC429CD103B0BDE8F08F2DE9F34102AF0123014647F8043D10221C481D4CDFF87480FBF5E8FD0425261D042221463046FBF5E1FDAB071BD1627923792271A2796271E279A271E371E21DE31C13F8011F18F8011019709342F8D1042239463046FFF729FF9DF80400FFF75AFF8DF804000135A4F1D1
:F96CF0000C0104223046EDB2FFF71BFF2C2D3446D0D102B0BDE8F08100BF8C74270098742700DC38270088422DE9F84F0C4616461F4603D001462046FBF5A3FDDFF87890DFF878A004F1FF3836090F3409F1100B08F101050EB9BDE8F88F394610222846FFF7EFFE102249462846FFF7EAFE0027434613F8012F1AF802201A70A342F8D100212846FFF7EDFEFBB2092B03D000212846FFF714FF0BEB0711102228460137FFF7CFFE0A2FE3D1013E08F1100810342F46CDE700BF8C742700DC38270088422DE9F84F04461546994601D0FBF559FDA5F11003DFF888801C44671E2D090F34A8F1100B7E1C0DB9BDE8F88F102241463046FFF7A6FE4FF00070
:F96DE9000A01213046FFF7B0FE3A4612F8011F144B1944A24291F800111170F6D11022ABEB0A113046FFF790FECAF10A02D2B2012A03D001213046FFF7C5FE0AF1010ABAF10A0FDDD1012DA7F10F014FF0100208BF49463046FFF778FE013D103F103CC4E7DC3827002C75270013469278597893F9000001F085BF13460021927893F9000001F09ABA134600205278197801F0B2BCF0B5072085B015460E461F46F6F64AFA294604463A460430FBF5EEFC002323706370330AA370E6702B7823716B786371AB78A37101A80722214605F000FD019D2046F6F631FA2DB1284605B0BDE8F040F6F62ABA05B0F0BD70B54FF0FF33044641F22105221A92B206
:F96EE200914201D898B270BD14F8012B5A4062F307039BB2082203F001065B080EB16B409BB2013A12F0FF02F5D1E7E70B21002049F6B4BE38B504460D4600200B2149F6ADFE0B222946204649F611FFA0B90B483BF6F9FE0A490B2049F6B2FE014658B908220B2049F63CFF80B2012804D10B21BDE8384049F692BE38BD00BFE36D2700D46D270038B504460D4600200A2149F685FE0A222946204649F6E9FEA0B90B483BF6D1FE0A490A2049F68AFE60B9082208490A2049F614FF80B2012804D10A21BDE8384049F66ABE38BD00BFF96D2700EA6D2700C5322100F8B5304C2188A38862888B422AD0C2B924272826A38822889A4208D0A26807FB0327
:F96FDB00231D6A03F0F2FC033585420AD9A088238883420ED10A21002049F643FE00236380F8BDA388013393FBF6F206FB1233A380DFE7A368242202FB0030437F4BB30123EDE7002AE6D0A06824263246002106FB0300FBF528FCA3882821013393FBF1F201FB1233A3800F46A38822889A42CDD0A26806FB03231D6A03F0B7FC03358542C4D8A388013393FBF7F107FB1133A380EAE7022363801C21BDE8F840FFF775BF00BF3C752700A0F52063FF2B10B510D8C0B201280DD10F4C6388022B09D1A368A088242202FB0030037F012B02D9013B037710BD0021FBF5E6FBA3882821013393FBF1F201FB1233A38000236380BDE81040FFF774BF3C7580
:F970D40027002DE9F74F82460C4603F072FCDFF8889000250646A8460C23CB46D9F80C10019303FB05F706223944504690F6F8FF019BA0B9D9F80C301F44BA79A24203D2BC71BE60012007E0BB680A33B342F7D31F2C01D8E02AF3D803B0BDE8F08FD9F80C0003FB080207449268B968914238BFA8460135282DD1D10C2303FB08F8404406225146FBF58BFBDBF80C30984488F80640C8F80860D5E700BF3C7527002DE9F04789468AB0064607226849484690F6B7FF002840F0C780664F044609F1080A3D4639690A222144504690F6A9FF002800F0A5800A34B4F5C87FF2D10DF10C081C2249464046FBF55AFBBB683888242404FB00301C224946FBCB
:F971CD00F551FB3B69B88A0A2202FB00305146FBF549FB06A90846514B1022FFF7E1FD9DF814309DF8154012210DF1160004EB0324FFF768FEA4B2844274D19DF81610484C48480B2318F8032004FB010182EA114208F8032001331C2BF4D101A83BF67DFD062201A906A890F65EFF00285AD09DF8161006A8FFF748FF002853D09DF81330FBB1AB682C88242202FB0434E379013BE3719DF809200A2323770523B2FBF3F303EB8303D31A637703F0A6FB2B8820620133282193FBF1F201FB12332B80FFF795FEAB8A9DF81F402821013393FBF1F201FB1233AB829DF81E30234A04EB0324A4B2002302F12C0131F83350A5424FEAC30027D10244156B7B
:F972C600A5B140F2FF239C421AD04FF601739C4207D0B4F5007F0BD1337A08AA214606A803E0082308AA21463046A847012012E0104F0026062206A9B81990F6F8FE08B90823EAE70636782EF4D1EFE70133072BCED1EBE700200AB0BDE8F087DC3A27003C752700E33A2700FD430300C39E2600D46D27009C7527002DE9F043494C804699462088A368242785B015460E460722454907FB0030FBF589FAA1682388D4F8DC2007FB031300219A720132D97222F07F4283F8079002A8C4F8DC203BF6D1FCA368208807FB0030062202A90C30FBF56DFAA3682088082D07FB003028BF08254FEA1823837480F813802A4631461430FBF55CFA2688A3680700
:F973BF00FB063614362E44C5F10805EDB2002D33D1A3682588274E274F242101FB053505F10B03AA7A05F11C00984235D1122105F10A00FFF76EFD05F10C01030A2B7268721E4B08461022FFF786FCA3682588242202FB05350A23AB8303F0D5FA238828622821013393FBF1F201FB12332380FFF7C4FD05B0BDE8F0833BF6EBFF042D2F4628BF042701903A46304601A9ED1BFBF510FAEDB23E44B9E7197806FB027281EA124103F8011BBFE700BF3C752700DC3A2700FD430300C39E2600E33A2700034B00221A65C3E91522C3F8E02070473C7527001FB510F013FE1B4CCDE90201DDE90223DDE902236388012B0BD1A368A088242202FB0030437F42
:F974B800B3B902231C216380FFF751FD236DE3B1E36D83B9A26D012A05D100931A461946184601F090FE04B0BDE81040FFF7CBBF013B4377EAE7013BE36510F0E4FDCDE90201DDE90223DDE9022304B010BD3C75270010B50E4C0021782204F16000A4F8D810FBF5B2F97A2204F160014FF47B2002F0F1F880B27A2807D040F2AF4204490548BDE81040FFF748B910BD00BF3C75270067452700A345270010B5174C216D21BB164B174A1A6004F1600001237A222365A165FBF589F97A2204F160014FF47B2002F09CF880B27A2807D194F8D830FF2B03D094F8D930FF2B07D140F2794209490948FFF719F9FFF7B3FF0023C4F8E030064BE36510BD0085
:F975B100BF3C752700DC702700B533210067452700C2452700905F0100B1F5007F2DE9FF470646154615D11378FF2B0DD1FEF7A4F8884B00229A75FEF7B3FF874987481AF097F8F5F63CFEFEE7854B1A6D1C461AB95A6504B0BDE8F08703F160094FF000084F460622314609EB080090F66AFD002800F0E08008F10608B8F1780FF1D12B78072B0CD100251E231A4600952946284601F0DCFD01236365C4F8E050D9E7636D13B9C4F8E030D4E702A83BF664FB95F80080B8F1020F5DD1681C062202A990F640FD05460028C4D1664B01224FF6FF7119801A715F4B55219975C4E91502414600924623A02001F057FE04F1610806F1010A052251464046E6
:F976AA005FFA85F990F621FD28B9337818F8012C53409B0618D00135142D08F10608ECD194F8D89009F1010292FBF5F305FB132384F8D83094F8D9300133DBB2142B84F8D93001D984F8D9504948062202FB090031464830FBF5B8F801237A2239464FF47B2002F02DF880B27A283FF476AF40F2F13240494048FFF757F86EE7B8F1000F2DD1D4F8E0200AB93C4BE365A36D012B3FF463AF022A0FD90523B2FBF3F101EB8101511A9DF80D20B2FBF3F303EB8303D31ADBB299420ED12846012300F8013B06223146FBF580F80023072229464FF40070FFF7DFFDD4F8E030013365E7B8F1030F7FF43AAF0135062202A9284690F6ACFC0346B0B106222195
:F977A30049284690F6A5FC034628B900900246014601F023FD20E000211E2300911A46084601F01BFD174BE3651AE7A26D012A3FF417AF00901E2247F6FF713C2001F00DFD0EE72B78032B7FF40BAF06220E49681C90F67EFC0028E5D1FFF73FFEFFF7A7FEFEE6386E2700250A2100686627003C7527007C8527005475270067452700C2452700407E0500F33A270038B51C4B1C4C1D4A1A60236923B94FF4C8705EF083FA2061A36823B94FF4B4605EF07CFAA060E36823B94FF4F0705EF075FAE06000251248A5822580A5806580FFF70AFA2565A565FFF76CFE0D48FAF598FF10B10B485FF04DFE04230A4909480022FAF557FF0A210648BDE8384090
:F9789C00FAF566BF00BFDC7027003C752700B5332100E33A270054752700D53621002DE9F04F9FB00D460446782200216846FAF5DAFF40F2FF239D421FD178224349424E6846FAF5C8FFA6F1600B00274FF006095D4609FB076A06223D4950461FFA87F890F6FAFB48B106222146504690F6F4FB00285DD00137142FEBD11FB0BDE8F08F95F8D8100B1993FBF9F109FB1131B9422CD00622A4EB080002FB00A06B4602FB01314830FAF597FF013495F8D900A3B29842E5D8274B254901380622C0B285F8D80002FB00304830FAF585FF95F8D9307A22013B31464FF47B2085F8D93001F0C8FEFFF77EFDFFF7E6FDC6E74FF00108DAE7A0464FF01409DF76
