:020000040000FA
:F90000004252434D63666744000000002CD5020003031742434D3230373335423120666362676120616E646F6E001603020000070111042000FA0330005002600018020C010C0102011800003200700F0000600800009C016000FF0000000A00000009010402200000000704FF0200000207C401FF0605E403E403E403E403E403FF03FF03FF03FF03FF0349044904490449044904880488048804880488040005000500050005000508050805080508050805043F043F143F143F143F143F020100006000059C02FFA002FFA402FFA802FFAC02FF0000600003B801FFB401FF5806FF0000410002F801FFFFFC01FFFF1A1C1E212319A8AB1D1F22242669
:F900F90019A8AB212326282A19C8232426292B2D19C82327282B2D301A08232A2C3032361A28234501570345016E0345018503450185035401B0035401B0030907C401FF0605E403E403E403E403E403FF03FF03FF03FF03FF0349044904490449044904880488048804880488040005000500050005000508050805080508050805043F043F143F143F143F143F020100006000059C02FFA002FFA402FFA802FFAC02FF0000600003B801FFB401FF5806FF0000410002F801FFFFFC01FFFF1A1C1E212319E8AB1D1F22242619D8AB212326282A19C8232426292B2D19C82327282B2D301A08232A2C3032361A282345011A034501310345014803450190
:F901F2004803540173035401730311010101030188670004270007B400F079FC002802D007BCBDE8F08F07BC01231370DFF5A3BC0000A8F86802BDE8F08100F0AEFF10BD0000BDE8F04701F050B8BDE8104001F042B901F055F9BDE8F081284601F0FDF99AF5CEF99AF512BB000001209CF5C3F801F0FFF9A6F5D2BD4FF4C870A6F5F1BD000008BF70BD0020A6F568FF26F6BBBA000001F0E2BABDE81F4001F0EBBA01D1052010BD99F605BE000007D094F88810002903D0B4F86E10D4F590B9D4F5A3B9000005D0052903D02FF67FFAEFF584B8EFF596B80000207002F024FCBDE810404FF0000020F696B9000003B4204602F048FC012803BC00D070CB
:F902EB00BD40F08000086031461DF6DCBE02F060FC1FF607BD84F881103EB4204602F06BFC3EBC10B920461DF62FBE1DF675BE000002F082FC4FF000095AF6F6B840F20114C0F20004FDF594F8FDF5B8B802F0D2BC204602F021FDF5F546B902F02EBD01B402F034FD01BCF5F5F1FDF5F58DBE000033F6EFFE08B1FBF559B902F0ADFEFBF555B904A808A90EAA02F0AFFEFAF530BFBDE8F04F02F0E4BE22F610FC02F09CFF22F6FCBC02D00028A8F528BB02F0A8FF002801D0A8F526BB0020BDE8F09F7047BDE8F04103F03EB8D0E84F2F0A44C0E8432F002BF8D1104670470000032802D004280AD022E012480068C0F3020001281CD010490A20087066
:F903E40018E00F49012041F2100208600D480821C170817841F0010181700B480168114301600B49094808600B490A4808600C490A48086000207047A807280089072800AC3120006812280068292800AB362800140028000D082700F0242800890727002432200038B52D482D4932F6ABFF32F6ECFCA0B99AF525FC2A49042088712A480321C0F8B011016841F0040101602849264808602748016841F4807101602749254808609FF7CCFC25480024016841F0200101602449234808602448244904701020088024492348086001F093F9244D2248254928602348886224490120087023494FF4A060088068460094B0F56CF89DF800001F2804D11E1C
:F904DD0049087840F00A0008701E491C4808601D4868601D481F4944701D48C1F88C0138BD00001C00210000000000740728003081330038382800B0072800A80728001C0021006404200004002800CD33280008002800F81E200058072800C10527000C1C2000E1192700F85520008D082700B049200097342000900C2800B4072800A9132700681C2000191A2700502F2000CD2F270044592000054910B5D1E9003401228240134344EAE274C1E9003410BDE836280030B400240C601E4C052B33D008DC012B30D0022B2ED0032B2CD0042B2AD106E0062B27D0082B0FD03F2B23D119E0022A02D00C2A04D01DE0A5680D60E46815E025690D60646938
:F905D60011E0262A02D01F2A04D00DE0A5690D60E46908E025680D60646804E0162A06D1256A0D60646A4C600C68002C02D130BCA8F53AB830BC704700002CFF200070B5012927D1C10425D51348D8F588FB0446124E124D1BE0BCF51FFA0F490E48D8F5C5FA30880B2804D005EB8000006820B107E0094802F055FB09E00949102033F6A3F9308805EB8000016803488847641E601CE0D170BD1CAB200074AB200078C514000400008110B5044629B1012903D0022901D1D6F5E7FC204610BD000008B502280AD122F07F404B09002100902FA2084611F69EF898F605FE012008BD10B504469BF570FC38B934B12078052803D1B4F8030002F028FA3200
:F906CF0048016809B120468847032010BD2DE9F043A5B080460C464FF000090B2804D025B0BDE8F043BEF51EBC2079284D022827D1274F386820B3A07A002600BB6846BEF54EFB9DF80600A8B12296062222A90DF11A00239633F60BFD60B9684630F668F940B1D0F80E10CDF81A10408AADF81E008DF819602A6812B16946122090473E602A6812B121464046904725B04846BDE8F08300000A444246575F4153534552545F545950455F464154414C212121206D6F64756C655F69643A2025642C2069643A2025780A000000E8282000F4282000EC2820000B46084910B5086011461846DDF524F9A5F530F9044A0549054830F64FFE002010BD00000F
:F907C800F4282000F1F20200D9F20200D5082700F8B506461648002511A701782A46304698F5F1FF040008D0002198F5BEFF0546204698F5B4FF3DB10FE000213B460DA20846009610F6ECFF00213B460DA20846009610F6E5FF98F64CFD2846F8BD00004657206D656D20616C6C6F633A200000531D28000A25736E6F20706F6F6C2025640A00000A25736E6F20626C6F636B2025640A002DE9F04F87B00020804602900490059018219F4833F691FCD1F5FCFF00286ED09C4C9B4D9C4FE16A606A084428603978012901D005290DD1022206A9D8F5BBF8BDF81810A1F57F40FF3801D0A5F530FC606A6861FF2098F5CFFF5FEA000A03D18E4910203319
:F908C100F66DF8387802280ED18C48E16A0078B1FBF0F0C01C860800213046A5F5E0FB3146029032F660FD8148446A7AE0062269462046D8F58DF87E480078012801D0052808D1BDF80010A1F57F40FF3802D1764844616AE0BDF800004FF0000B000441D56846A5F5DBF8E8B3BDF80250A01D29186E480068814235D8002704F1060914E0042D01D22E4600E00426324651464846D8F55EF8002004E0C3E01AF80010401C0F44B042F9D3AD1BB144002DE8D187F055009DF80410C0B2814213D1BDF800000499C0F30E052846A5F586F808B94FF0010B28460599A5F572F80590049808B90598049053480078012835D0052833D0BBF1000F53D0504D41
:F909BA00BDF802202878411D1144B1FBF0F0C3B28DF80C30012241460298A5F5A9F89DF80C002978804410FB014441480068A04280D80498A5F55FF8504698F5F6FF3E480078012841D005283FD03A4800252C46C16A3B482F462E460078B1FBF0F84EE0BDF802003349401C20F00105AD1DBBF1000F03D0088A284408820EE0488A28444882BDF80000000407D50020ADF80000022269462046D7F5D0FF05F1010525F001000444C1E7BDF80000000407D50020ADF80000022269462046D7F5BEFF204808F1010800780444AFE71948408A58B3AEF51FFC28E003AB424631460298A5F5D9F800289DF80C0003D0844205D2044603E0854200D2054607CF
:F90AB30044C0B206444645E9D3A54205D2E0B20299A5F561F928B907E0012C05D9B5EB570F02D20298A5F502F90298A5F509F8012007B0BDE8F08F000034A620002C0520007C05200004010081942A20000120107000205070508050609060D0601061363950611F2971D2DFE801F01013181B1E2124272A2D303336393C3F4245484B4E5154575A5D606366696C004FF46D7001E04FF471705080012070474FF4C270F9E74FF4CA70F6E74FF4D270F3E74FF4DA70F0E74FF4E270EDE74FF4EA70EAE74FF4F270E7E74FF4FA70E4E74FF40170E1E74FF40570DEE74FF40970DBE74FF40D70D8E74FF41170D5E74FF41570D2E74FF41970CFE74FF41D70EB
:F90BAC00CCE74FF42170C9E74FF42570C6E74FF42970C3E74FF42D70C0E740F27440BDE740F28440BAE740F26440B7E74FF44570B4E74FF44970B1E74FF44D70AEE74FF45170ABE74FF45570A8E74FF45970A5E7FFE710700020704770B586B004460D466A46DEF5A7FF9DF8000000284FD0BDF8020010B1284941F82400019870B3264A0146A43AFF26254B601C914208D19DF801101A688E40B2438840104318600BE01D4AD83291420AD19DF801105A688E40B243884010435860019908600EE009689DF801209640019AB1431160019909689DF801209040014301980160029868B1049828B102980068049988430299086002980068039908430221
:F90CA5009908604FF44E1101EB84010598C1F80002054805559DF8000006B070BD00000084330054FF20004CA620004349007808700020ACF62FBC4149AFF20F00D9F570BF3F49491EAFF21B00D9F56ABF3C49891E012808D0022805D1AFF22300394A1060022088707047AFF22900364A106001204870704710B501281AD133480078012804D03248B0F84E00002811D03148006810B10120FFF7DAFF2F480068002807D02E480078002803D1BDE810400220CDE710BDF0B40C46284916461A460B78DFF89CC033B901219CF80050814029438CF80010234D296801EB4000002105E034F8027B07804BB1801C491CB1EB560FF6D3134CA41E1BB1314640
:F90D9E0009E0001DF4E79CF80000C043800706D18CF80000710028686368F0BC1847F0BC70478C460F490978002904D11346014662460120C1E7704713460A4601460020BBE7162B20005EFF20002C2B2000202B2000E8DA20002CD42000402B2000482B2000152B2000142B2000382B20002DE9F047DFF8C0A090469AF80020002A54D12E4E914600B32D4F0024386086F85F1016E0306EA5F5B6FD3B6804EB440503EB85014860306E0881A1F80A90A4B11020A5F5A8FD396801EB85010860641CE4B296F85F00A042E4D8B8F1000F27D01C4F0024C7F8008018E01B481860EEE7A5F591FD3A6804EB440502EB85014860306E0881A1F80A90D4B110BA
:F90E970020A5F583FD396801EB85010860641CE4B296F85F00A042306EE4D84000A5F575FD0B4908600C490B48086001218AF80010BDE8F08709481060E8E700005CFF2000642B20001C2B2000282B2000C8A62000382B2000130F2700242B2000ECA620002DE9F05F824685489346824D8846DDE90A29804C804FB8350168261D41F0080CC0F800C0DFF8F8C10020CCF80000396821F001013960B9F1000F02D079494B60794B7A494FF000000B607949086012D0794878497B4B016078494FF0000008707748017878480029196E006800D1490032F61EFA01E0704802606848016841F0100101602068BAF57A5F2ED020F480102060B8F1180F2BD0E8
:F90F90002068B8F1080F20F0404034D000F180402060286820F006002860306820F4C0203060644D88202860634868604FF4C460A8604FF07C00E8604FF4A07028614FF089002860A5F55075B9F1000F21D0022020E040F48010CFE7206820F040402060286820F00600001D2860306820F4C02000F58020D4E700F100402060286820F00600801C2860306820F4C02000F50030C6E70120ABF6E4FFABF6D1FE3D48006810B14648ECF51DFE3D48006810B14448ECF517FEDFF80C91D9F8001009B10120884741484FF4D0264FF44818007B02283CD0DF2045F8A00F282033F61EFA0020A860D5F85C0340F47020C5F85C03374903200860206840F48061
:F9108900002060344828600020ABF671FA5846ACF65EF8C8F80061386840F001003860D9F8001009B102208847ADF688F8ADF67BF8ADF6ACF829490620088028494FF47A7008605846ADF68DF9264900200860BDE8F09F206840F4800020600020ABF647FA5846ACF634F8C8F80061396841F001013960D8F8341241F00201C8F83412CEE700002883330044803300781532003C2B20005CFF2000CF0F2700402B2000442B2000B90F2700482B2000142B2000152B2000642B2000382B200040833300010D1600B8A62000DCA62000242B2000542B20006C066000DF00C000182B20004C2B2000502B20000448006820B10448017821F010010170ACF6C8
:F9118200ECB8482B20005C1F200010B5002106489AF5C7FF002807D13A20ECF547FCBDE810403A20ECF5A5BC10BD09C300003EB5134CAB218DF808102178490701D5012818D1012000900346024602A90190FDF5C2FA0B480078C0F34000AFF5AFF910B140F21C7060800020B4F9021000E0401C8142FCD8207820F0080020703EBD741C2000B40728002DE9F843DFF8F4914FF44E178846D9F800004C4690F8200000F00305386F40F001003867022033F63CF921688B7FEBB3D1F8190000B311F8213F4A7899184843C1F580344FF6FF718E1A012211465CF668FC012003460090E8B22246314605465CF6A1FD23463246012128465CF618FDD7F8F842
:F9127B00000006FBD44FEA1860C7F8F8004FF47F00F864386F20F03902D9F80000D0F8191001B120210A43817F01B11021C07F0A43012813D0002000E005E0024342F004003867BDE8F8834A7FD1F8190019465CF62EFCD7F8F8000006FBD4D3E70820EAE72DE9F05F494F484D0024396811B12868007E884732F68BFF81462868DFF810814FF0000A017E4FF0080B012631B1012928D002293BD0032968D141E0C0F814A0C0F800A0C0F804A0C0F808B01DE03D20ECF5F8FB2868C268416902EB4102491C41610068118808EB800001602868016806FA01F2491C01F00701016081681443491E81602868806820B12868416900698142DCD3286841695B
:F91374000269914201D2067601E002210176204658F6DEFC2EE04FF44E10C06C10F0FF0F28D13D20ECF5C2FB2868817F012907D190F8200000F0030106FA01F05CF662FC2868807F5CF605FC286880F818A0C0F80CA0C0F810A0C0F800A0C0F804A0C0F808B0B86830B1484632F619FF2868B968007E8847484632F612FF7968002904D02868007EBDE8F05F0847BDE8F09F0000B42A200064FF20005080330010B599F5D1FF02490020088010BD000070FF200099F55EBE99F5E7BF18B50088ADF800009DF800000C4AFF280FD0931C197881420DD99DF8011003EB40004C061146B0F80300098804D4014303E00020108018BD8143118018BD00007036
:F9146D00FF200008B568469AF5CFF810B16846FFF7D6FF0148008808BD000070FF200038B50B4C607850B168469AF5BEF802E06846FFF7C5FF9DF80000FD28F8D10448A178801E09B100210180008838BD000072FF20009AF5BAB89AF5BFB810B5AEF5EDFFA5F53FFD4C484C4C007818B94C482AF6EBFC20B1002031F660FA494800E04948206010BD2DE9F041484E05460C4630684FF0000880046CD531F6A2FC002868D04348006840061FD54249081F33F6A0F80F466FF000420646514071EA06000FD032F6CBFF301A67EB0101AEF5E0FE2A683149824202D90120087001E081F8008034480C38C0E900673348334F0088398808443249097808442C
:F91566003249B1F90010461AAEF59FFF062800D1B600A8F588FB60B32078022838D32B4928680988884233D93988314488422FD3B7F541F960B331F662FE31F671FE31F6A3FDA5F5D3FC2868411C01D0801B286020482049006808602868A5F51AFC20701E4801681E48C0F89C111D490968C16010E084F80080BDE8F0812078401EC0B22070032804D0042804D13068C00501D484F80080034904480860ECE7000095FF200000002800780B280007B011F007B023516C072800A8072800BC0928005807280090092800F81E200094092800920928009C3320007C372800A0FF20007C0032009CFF2000014908707047000096FF20000149086070470017
:F9165F000098FF200010B531F6A4FC554C10B9206800B18047534801686160D0F89011A160016821F470210160D0F8901121F40051C0F8901110BD7CB54B4D0446A86B44F2036120EA0100A8636846A6F561FDDDE90001001941F10001400B40EAC1402A6A490B22F47F42030642EA13432B626A6A000A40EA01606FF30F0280B2104368624FF440402860A96B41F44241A96340F20921C5F8181128607CBD2DE9FC4105463248334EB0F900002C18706B20F0030070634FF4C060C6F82C014FF01008C6F80080C6F878014FF080077760A6F59276681C05D0B4F5800F04D32046FFF7ABFFBDE8FC816846A6F513FD009806F5A8762844B080B189C0F35F
:F917580006406FF30D0141EAC010B081009820443080B189C0F3064041EA0001B1811748A6F5A8760068010740F209200ED506F59276716B41F002017163F16B41F03001F163C6F82C01C6F80080CDE706F59476316B41F001013163B16B21F03001B163C6F874013760BFE798FF200088003200208133009409280024813300A807280002490148C8617047913528007833280010B5144C2068C00201D599F59CFB2068000304D500209AF51DF899F577FF0E48016841F01E01016031F6C7F80B49087024F67EF8002010BD10B522F640FD29F626FB0748016821F001010160BDE81040C0F51DBFA807280078153200A4FF2000681F28002D490968393C
:F9185100B10978012904D12B49814201D1CDF58DBF0020704710B5264886B00DF1040C0068FF24017B837B427BACE81E0000210091D0F80230C2880221002000F022FB1E48016841F4C05101601D48006806B0BDE81040CDF53ABE30B5164D044685B028680DF1040E4FF0FF0C017B837B427BAEE80E1000210091D0F80230C2880221002000F0FFFA28680E4A40F23451D0F80200C0B242F82010CDF55BFE0748016841F4C05101602046CDF510FE05B0002030BD00006828200009C300000006360074282000008433000A4A4FF48063401E13801023538040F233335360064B00F00700491E43EA002001F01F0140EAC12090607047541D2800C5002D
:F9194A00020099F534BD99F5AABB99F5C6BB99F56EBE99F55BBE99F571BE99F557BD99F58DBE99F5B7BC104810B581680123C1F30222521C03FA02F0401EC1F3C421491C0B4A8B4019021368A1F58071526841EA000143EA024201EA0201814203D199F543FB002800D0012010BD541D2800648333009AF586BB9AF58ABB9AF566BB2DE9FF470CAC0646B4E82110002794E8000700970197029703970124771E1E2F02D88DF8006000E0002411B1CDF8011000E00024511E0F2902D88DF8052000E0002433B1834204D9AB4202D9ADF8063000E0002430B1984204D2A84202D9ADF8080000E000249D4204D2854202D8ADF80A5000E00024BCF1000F02E1
:F91A4300D08DF80CC000E000248DF80D808DF80E908DF80FA024B1102269460348F6F531FE04B02046BDE8F087C4FF200004480E2180F8511040F25231416500F019B90000642B20000248006890F8250070470000B8FF200002480068B0F9220070470000B8FF200010B504460820A4F57EFF002804D0034944604A680260486010BD0000A8FF20000149086070470000B4FF200002480068002800D001207047BCFF200070B51848007800282BD032F600FD16490968401A4FF47A71B0FBF1F01349D1F8011088421DD300F067F800F049F800F039F80F490F48104D0A682AB102682B7892F825209A420CD000684C68297880F8251004E0616809B136
:F91B3C00287888472468002CF8D170BDB1FF2000C0FF2000C4FF2000A8FF2000B8FF2000B0FF20000149086070470000A8FF200010B504480124C460406800B180470248046010BDB0FF2000640728000548054980681431B0F922004989884201DCFFF7E7BF7047B0FF200010B50C4C04F11402A068D388B0F9221010469942007B01DB207010BD1289914201DC0020F8E7891A4843991AB0FBF1F0F2E70000B0FF200070B532F688FC194D2861194890F85300AAF639FF05F114042078AAF6A8FEA96891F824200B8C01EB420215885B1B0B8410800A8C104402B20A8491F82400401CC3B281F824306079834202D3002381F8243092FBF0F300FB1346
:F91C3500221CB24C84B2EB500F01DB641C4C8470BD0000B0FF2000642B200070B50024094D03E0FFF7C0FF641CE4B26879A042F8D8FFF79DFF044814388268017882F825100121417070BDC4FF200010B5AAF64AFF0A484179102901D91021417107480021143801708068018480F824104184BDE81040202131F67DBB0000C4FF200010B5094CA06830B92620A4F576FE2621A06031F66FFBFFF7D9FFFFF7BFFFBDE81040FFF757BF0000B0FF20000149002048707047B0FF200030F651BB70B500218CB014A208460FF675FD154D002405EBC4000DF11C0CC18AC68B838BE21CACE84E00818903AEB0F814C0A31CC289A6E80E10C1888088621C8DE877
:F91D2E0007000021234608A208460FF656FD241D082CDFDB0CB070BD00006D656D5F686F6C653A0A0000D4FF20005B2532645D202534642F253464205B2532645D202534642F253464205B2532645D202534642F253464205B2532645D202534642F2534640A00000000F8B504460821194E4FF6FF73002006EBC0029288A24203D39A4201D201461346401C80B20828F2D308290DD256F83150E41C24F00304281946F8310006EBC1008188091B818003E02046A4F5E6FD05461DB12146284631F6DDFA0021234604A2084600950FF6F6FC2846F8BDD4FF2000705F616C6C6F633A20256420253038580A00000004480068002803D103480078401C003F
:F91E27000470470000140021005D1C2000002804D00249086003490248C86470471400210011202700407C200008B5DBB2DDF808C0CDF800C0AAF625FB08BD000070B50E46104904460E48097B012916D04FF44E120021C2F8A010016821F0020101600020AAF676FB054631462046AAF6B0FC04462846AAF66DFB20B270BD002070BD000044803300542B20000148006870470000542B20000148406870470000542B20000148806870470000542B20002DE9F04F06462DED028B81B00C46DDE90DB917469846DDF830A09DED0F8A109D9AF559F886B915480470A0F80170C0F803800020DEF5EFF98DED008A4B465A4651460020DEF53BFA012C11D170
:F91F2000B9F1000F0CD0002301B005F00F01BDEC028B2809BDE8F04F4FF48C4298F538BE0123F1E701B0BDEC028BBDE8F08F0000682C2000DEF5ABBADEF514BBDEF5F4B9DEF5E5BADEF532BBDEF536BBDEF53ABBDEF53EBBDEF542BBDEF57DBBDEF575BBDEF582BB2DE9F04104468068884616461F4640070BD500212346104A08460FF623FC0F49182031F6F1FC97F686F994B1B8F1000F0FD004F1300538462F709CF5D9FB02463346414620462EF6FDFF6E600020BDE8F0812920FBE70000843727000402008164290ED2B0FBF2F0C0F5803248436421B0FBF1F04FF6FF711A60081A5860002070472920704700002DE9F04708ACB4E8E01094E800E5
:F9201900071E4C2082A4F815102046E275007E13B140F0010001E020F00100207615B140F0020001E020F00200207616B140F0040001E020F00400207617B140F0080001E020F00800207684F819C0B8F1000F01D0012000E00020E076B9F1000F01D0012000E000202077BAF1000F01D0012000E000206077BDE8F0870000601D280099F566BC99F57BBC0348C07E002801D099F5D5BC70470000601D28000348007F002801D099F5D2BC70470000601D28000348407F002801D099F5CFBC70470000601D28000748C17E09B199F5B8BC017F09B199F5BBBC407F002801D099F5BDBC70470000601D280099F5CFBC30B40C46102819D80D49087004B10D
:F921120001244C7002B101228A70002208E003EB420401EB42052488521CA5F80340D2B28242F4D3014630BC0120FFF7ECBB30BC704772FF2000FFF762B9FFF790B9FFF79CB938B558B197F517FD040007D000216846AEF5B3FF9DF80000204438BD002038BD10B5044627280CD819B1BDE81040DDF538BFDDF536FF0449042041F82400012010BD002010BD00000084330070B5A0B00446082110A85EF641F9082210A920465EF65BF9002846DB404908220E4620465EF653F900283EDA04F12000082210A905465EF64AF9002835DB0822314628465EF643F900282EDA0822294618A85EF6BEF90822214608A85EF6B9F908A90823224608465EF6AA4F
:F9220B00F922460823114668465EF6B6F969460823224608465EF6B0F926496A460823243910465EF6B2F96A46082308A910465EF6A3F90822694618A85EF613F910B1002020B070BD0120FBE738B505460A208DF800000C462846F7F5EAF828B16A46172128463DF679FB38BD2A1814F8011B401C82F874112028F7DB00202A1814F8011B401C82F894112028F7DBB5F84C0040F04000A5F84C0005F5BA70FFF77BFF012803D00B208DF80000D8E700212846E9F514FF38BD94BC20002DE9FF410D4606462EF698FB044600200090019002900390012D04D941F6A87004B0BDE8F081194890F81E03400602D441F6A770F4E741F6AD779CB194F890000A
:F923040080070CD51022694604F19A0031F615FF28B194F889002A4604F18A010BE041F6B170DDE73046A1F56FFD58B1037B00F10D012A461846D2F5C3F808B10020CFE73846CDE741F6AA70CAE70000746720002DE9F041064600240E4F11E00E4804EB8401D0F87C0600EB8105A868012805D106223146284631F6E0FE48B1641CE4B2386890F87000A042E8D80020BDE8F0812846FBE7E42520007467200070B55B49884203D05A49102031F6F7FAA3F534FB5848012105469AF510FA564E543E84E0214628469AF564FAA08A2A2844D01CDC09284CD008DC092877D2DFE800F076353D3D3D41763945001B2844D006DC0A283DD00D2863D01A28671A
:F923FD00D13CE01C283AD01D2838D01F2860D145E035284FD00ADCA0F12B01092958D2DFE801F01E3457574141454D41003C2829D006DC372836D0382834D0392848D10EE03D280CD03E282DD0502841D13CE020461EF6C9F83CE020462EF6C8F838E020469EF579FA34E02069CCF5EEFD30E0D1F572FC2DE02046BCF561FA29E0316C02E0204624E0716C19B3FAE72449097801291ED12C38C0B2D7F585FB19E020469AF522FF15E02046E6F5AEFA11E020460FF6EAFB0DE020460FF6E9FB09E02046F6F5C7FD05E02169DBE7A16809B120698847746D24B1E06800283FF475AF70BDBDE870400B482EF6F7BC10B5040001D0606A18B90B49102031F6ED
:F924F60053FA31F687FE002284F8212031F686FE606B616ABDE81040084790FD200004030081ACA32000482A2000040400812DE9FC4107460020009001900E46154638462EF663FA044685B32CB194F80201022811D001282AD03846FFF701FF002808D0D0F80D103160B0F81110B180007B28700120BDE8FC8194F88800012801D0A8B119E0062204F18A01684631F6DDFD60B194F8990080070ED5D4F88A003060B4F88E00B08094F88900E1E704E0D4F80E003060608AF5E70020DBE708B56A46FFF7B6FF08BDFEB5044600200D46164600900190012C01D0022C07D135B102AA69463046FFF7A4FF012805D0324629462046E5F513FEFEBD0420D16E
:F925EF00F551FF6A469DF80810F4E770B50C4641F6AA7502212BF69CFB7CB160B190F84E102170B0F89A106180B0F89C10A180B0F89E00E0800025284670BD41F6A87070BD2DE9F04389B006460D4690461F462421684631F6A8FD6C464FF02209222D01D82EB925B141F6A87009B0BDE8F083641C8DF800702021204630F69EFE76B16DB11F2D00D91F25641C8DF80150002003E0315C04F8011B401CA842F9DBC5F11F00002300F804806A4649464FF654501EF6FBFCD9E70323FFF7C3BF00001CB502460C4600200C4900900190097868468C4202D941F6A8701CBD04218DF80010401C1146DBF506FA047000236A4608214FF654501EF6D9FC1CBD51
:F926E800181228002DE9F05F054690F87C6090F88E004FF0000B022801D185F87CB00024DFF894904FF0040A05F148083AE0D5F8880000EB8401086898B1EA6A904230D0C4EBC407D9F870300AEB8707DA1912683AB3C1F800B02BF6EBFBD9F87000384417E0211D01208840304208D0C4EBC402D9F870100AEB82000844006810B956EA04000ED1C4EBC402D9F870100AEB8200084495F88E300768B5F88C2000214046B847641C0548006890F86B00C01CA042BDDCBDE8F09F0000A0752000E42520002DE9FF4707461646884608462EF624F904004FF000008DF800000546019002906CD094F8020180076FD594F8880001216FB320B198F80020B1D9
:F927E100EB921F0ED032464146C3F544FD14F8880F4146A2F541FD0546207A40F001002072AAE004F18A00062201A9074631F696FC00280ED014F8890F32463946C3F52AFD20783946A2F528FD0546E07940F00100E07191E020B198F80020B1EB921F0FD026B132464146C3F515FD02E04146A2F529FD054694F8900020F0010084F8900004F18A00062201A9074631F667FC002872D006224146384631F660FCE0B394F8890026B132463946C3F5F4FC02E03946A2F508FD054614F8900F20F0010020705AE04FF000094C464D46DFF8DCA012E036E0364805EB8501D0F87C0600EB8104A068012805D106224146204631F636FC50B16D1CEDB2DAF810
:F928DA00000090F87000A842E7D8B9F1000F1BD08EB1324604F10D010020C3F5BFFC00E02EE004F10D014FF0000057B1A2F5B8FC04B0BDE8F08704F10D010020A2F5C6FCEDE7A2F5C3FCF3E76A4603A94046A1F5D6F866B1324641469DF80000C3F59EFC9DF80000414647B1A2F59AFC07E041469DF80000A2F5AAFCF2E7A2F5A7FC05462846D5E710B5A2F57BFC0948006890F8740001010848D0F8B00430F618FD0549002081F8AF0481F88004C1F8880410BD0000E42520007467200010B5044601460088012202EB1020554A088004201268904720462FF66FFC002010BD70B504461420A178012902D0022903D005E0E068008800E0E089143080E1
:F929D300B22FF6E2FB05001CD014222146F5F571FEA078012802D002280BD012E005F10C00E860E16805F114060988A981E068028802E0E28905F1140621693046F5F559FE2E61284670BD10B5040013D02088000A0EF6C3FF70B10D30DCF596FB50B12046FFF7BFFF010005D0AFF2AB00D8F5C1F8012010BD002010BD2DE9F0470126814600250C464FF082083746B9F1060F22D2DFE809F0031D1D1D2D1D10202FF694FB05000FD010222146F5F523FE29461E482FF629FD29461D48D8F59BF84FF00008464608E0E08807EB1020E08003E0208807EB1020208013480268FAB1F6B1214648469047804659EA050909D016E00846FFF7A9FF0028EAD094
:F92ACC004FF088080026E6E7E07B012806D1A06820B1A07B022801D1E5F585FBA1682068DCF5A2FA4046BDE8F087000048282000407B200073F204001748006818B117480078002800D00120704714490120087070472DE9F041002405467E264FF48A780F4F13E00F48D0F8781604EB840000EB841006EB80020A441288AA4204D101EB8000414630F62AFC641CE4B23868007AA042E7D8BDE8F0812E23200018002100E42520007467200010B5044699F510FA30B925480068000702D4FFF7BDFF08B1012010BD20461BF6D8F9002010BD10B51AF6ADFC0021C0F8F410C0F8F010C0F8EC10C0F80C11C0F80811C0F8041110BD164810B5007848B10147
:F92BC50020DFF58FFE14480068BDE81040C0B2DFF56ABEBDE810400020DFF583BE10B5044699F5D9F978B90948006800070BD4FFF786FF40B1094800780F2801D0082802D10020A4F88800B4F8880010BD0000D8823300502F2000C08B3100A4FF200003490A7CC988B2EBD10F00D2002070477404200070B5044600F5A47525480068C1043CD5C0060FD594F8D90010B12248007848B91020A4F84400E06B40F04000E063204635F6FDFD94F87C0194F87811084205D094F87D0194F8791108420ED1B4F88C0140F00100A4F88C01B4F8460040F00800A4F846002046E1F58CF8B4F84600010706D440F00800A4F846002046E1F581F8687820F0040045
:F92CBE00687070BDB4F8460040F00800A4F846002046BDE87040E1F571B8682928007D33200001460020C9B2012903D0022900D13C20704770207047000070B505460679408827F6C0FA040038D00F2E06D0112E0ED02846BDE87040E1F557BAE06BC0022CD5B4F8460040F40070A4F8460018E013484079000702D511481D3000E010480078C0061AD5B4F8440080050ED594F8DA004FF6FBFAB4F8440020F40070A4F844002046BDE87040E1F528B8B4F84600810503D520F40070A4F8460070BDF42428006812280090F84A204FF4461132B190F85220D1F8040362F30F2001E00A48008AC1F80403704710B5084825F626FFBDE81040074825F6215D
:F92DB700BF054900EBC00001EB800025F61ABF000068122800B028280058C2200001460020097C132903D0072900D102487047014810387047D837270070B50446487C0D46122803D194F8DA004FF6A3FA29462046BDE8704035F652BE90F8DA004FF699BA0EB5174B8DF8001003F11D025B7909294FEA037115D0002900DB124A1168CDF801105168CDF805109DF80410092221F008018DF8041090F8DA00694650F649FE0EBD002900DB074A1168CDF801105168CDF8051090F8B8108DF80110E4E70000F424280068122800054810B590F91B003BF67FFBBDE81040002148F6F2BA0000681228001FB5022052F624F80024ADF8024028B16846E1F553
:F92EB00097FEFFF56BF91FBDBEF57EFB19484FF446120168C2F8941004601748016921F001010161016821F00101016052F69EF8E7E730B500F10904002589B0B0F809002946B1F501FFE01C00F074F830B108236A46E11C09484BF6E0FF05E0FF222021684643F688FD12256946284657F67FFD09B030BD543F20006001650034C7200070B598B0044600F1180506210CA85DF677FA062221460CA85DF691FA401C44D1594906220E4620465DF689FA401C3CD1062229460CA85DF682FA401C35D10622314628465DF67BFA401C2ED10622294612A85DF6F6FA0622214606A85DF6F1FA06A90623224608465DF6E2FA22460623114668465DF6EEFA6948
:F92FA900460623224608465DF6E8FA40496A460623243910465DF6EAFA6A46062306A910465DF6DBFA0622694612A85DF64BFA10B1002018B070BD0120FBE770B5A0B0044600F12005082110A85DF61DFA0822214610A85DF637FA401C44D12D4908220E4620465DF62FFA401C3CD10822294610A85DF628FA401C35D10822314628465DF621FA401C2ED10822294618A85DF69CFA0822214608A85DF697FA08A90823224608465DF688FA22460823114668465DF694FA69460823224608465DF68EFA14496A460823243910465DF690FA6A46082308A910465DF681FA0822694618A85DF6F1F910B1002020B070BD0120FBE710B504460848006820F626
:F930A20031FE0028204602D0BDE8104099E7BDE810403CE70000B0BB200094BC200038BD200010B51648FFF7E6FF08B1002010BD012010BD2DE9FF41114F06463F1F0C461546381DFFF7D7FF88B138680D49283000950394CDE9011007F16402A2F11001334601F120004BF64FFDBDE8FF8104B02046BDE8F04106214BF633BE00003CBD2000A40C280010B5941DCBF59AFB082084F8290010BD01209071024890F84B01D07170470000C80D28002DE9FC4790F83970054600F11C06B81CC0B240F0800100243A4848F6A7F9A87B694628F679FA0098DFF8DC8010F0030006D001281BD002281CD003280CD11CE00198A96A884200981BD9022127F6E002
:F9319B00FE3060B8F80000706095F83A00DFF8AC9090B199F80210684627F6AEFF3BE001210098EBE70221009801E00121009827F6C7FE3060A86AE6E799F8021099F803000144E8E7781C05F12C01C0B2D9F5E1FF8046DDE9001040EA4120194901EB840188671849E0020860B8F14F0F09D208F1020040EAC42048F2801108431149091D08602819641C80F83E7099F80210684627F672FF47466946304628F60BFB012803D14F2F01D2042CCCD385F842402046BDE8FC8704016000680B2800561C280000E0310000E931002DE9F041154E00F109050027B6F86400B5F803101446884202D15771BDE8F081002020F6E0FA08B10C200DE0B5F80300F6
:F9329400B0FA80F1C1F1200290FAA0F1B1FA81F1491C072902D212206071E7E7A6F8640086F84B2186F84A116771DFE7C80D28000749072081F84A010648027801209040401E4FF6C0721040A1F8640070470000C80D2800F52020000148007870470000190021002DE9F047002580460C460A2902D82FF654FE10B10020BDE8F08730F67AFF8146874A8848DFF820A2884E4FF44817B8F1090F70D2DFE808F0056F4E27292B354C7400204631F669FB0646FF2863D007F1B4074FF44060B8604FF00A0031F65AFB0125BD600A2031F655FB386820F00300304347F8B4090A2031F64CFB0CB1C7F8B850012547E03470FBE77470F9E73968C90401D509A8
:F9338D002C09D3115D0288114409B210E03968C90405D5092C03D2484630F634FFAFE7115D0288511A09B20180002900DC00210180084631F6F9FA044601E08AF800409AF8000000B104463078A04200D904467078A04200D20446092031F663FA4FF44E1641F21E27C6F8AC73204631F675FA0546092C10D01E20C6F8AC03204631F651FA484630F6FFFE28467AE700228AF80020B0F90000CDE7204631F643FAC6F8AC73EEE72DE9F041074644484FF0FF36884604687508BCB130F6E1FE0246404801E024686CB1A1688907FAD561688142F7D0A069E569C61B75EB080501D500263546104630F6CFFE30462946BDE8F0812DE9F041334F05460E467E
:F9348600B868A32804D02846BDE8F041ACF50BB82F482C03854203DB2E49102030F67CFA1EB901212C48FCF782FF7868DFF8ACC0DCF80020DCF80410002804DD411B322901DAA0F13205411B0BE07B68834206DD7868DCF80030DCF804509B1A5918A4F101047B68A3EB0103002B01DD002CECD1002EBED1711EBDE8F0411648FCF757BFB7E770B5164C2078164D297888420FD0207858B90D4800218160C16003218160091F0160A321816030F69FFE2078287070BD441E1300161D2000111D20003C1C2000181D200019450A0000A03200400D030004050081101D200080092800780928008037280010B518B19BF53AF9002010BD292010BD10B54EC5
:F9357F00F6DFFE0149087010BD9A3E2000030168843727000A5741524E494E47212120616E206163746976652074696D657220617420616464726573732030782578206973206265696E67207265696E697469616C697A65640A0000000000000000000009302700000000000000000000000000E92F2700000000000301F4012CFF2000953027000000000021332700030046003133270003000800DB302700430000005D3427000500060000000000000000000000000000000000000000000000000000000000000004000001000400020000800000000000000000000000000000000000000000000000000000000000000000000000000000000079
:F9367800000000000000000000000000000000000000000000000000000000000000000C60EA000008800C0807A4066403080120462000B002B002C05B2000E802E8022071200008030803F0B52000F003F003E4E5200000040004F8CB20007C067C0660F5200000080008F4DA2000F00AF00A00000000000000000301541C00210070B50024104D1CE0104801190A68C2F31700120E05D0930706D0496818F602FC0EE0496801600BE012F00C0F03D0496818F60CFC04E0D20602D5496818F610FC0834AC42E0D370BDE00100006C0021000301E4036C002100F1F20201AD0827004D9A0001D109270031630101550A27005DFD040201042700D5000576
:F937710001FD0D270071AE00021D0427003DC300022504270090560A10F036280098560A10FC36280089550A01ED332800719E0C0101142700699F0C022D0427004D71010235042700657101023D0427009D750102A175010071AA00024504270001700102550427004970010263042700516F0101F3182700ED6909026D042700C5F903027D04270041F9030281042700E5F70301A11A2700B1A010028904270085E900017D21270019C305014D242700AD4D0101BD242700C147040295042700F9110A019925270041110A01DF262700BDF50502AD0427008DDF0901E528270041780501A1292700497D0501572B270004AC050425B10121BDF204018E
:F9386A00452C270079BE0402C1042700A1E20802D5042700D1050901932D2700F9FE0802F104270065E10802F904270009A70C021505270005FC0B01312E27009DD6060221052700B9AB090231052700BD57060235052700195006023F0527006962060243052700B5880A01113027001D510C01793027000DB8060255052700D1B3060267052700D9D30402750527007D2F09027D052700DD8B010289052700B9970102A3052700894C0A01F134270035440A02A505270029460A017536270021470A01013727002B01A006CC33280010B500F0D9F9002010BD0000034901228240096801EA020070470000E83628001B4810B541888CB000EB8100C4AB
:F9396300680CB9184804681FF6D3FE08B912F683FB1648006800901548406801901548006802901448006803901448006804904FF48200D0F8AC00059011480068CDE906044FF0200269464FF0FF30D9F554FE04461FF6AEFE08B912F66BF90CB0204610BD0000F0362800082635008880310000A03200A0863100340441009C074100480541002DE9FE4334480078C0F3C0009DF555F900285ED0314F324D4FF4541838684FF4481478B1286840F000402860D4F8940040F00200C4F89400D8F8341041F01801C8F8341000210420D4F55CF9002003460122009023491046EBF506FA0126AB208DF8080000963346324602A930460196EBF530FA002062
:F93A5C004FF4C871401C8842FCDB79208DF80800D4F8180220F40050C4F81802012300961A4602A918460196EBF519FAD4F8880020F47020C4F88800386800280ED0286820F00040286054F8940F00F002002060D8F8341021F01801C8F83410BDE8FE830000B4072800100028007C153200001BB7004046314600F006F8002801D093F5E3BEBDE8F087044A12880A44824201DC401A7047002070470000900928000A4910B508480860094800680CF6D5FF08490020087008495A200880074946200880002010BD000026150200E43820007C372800A43320008E332000A233200004D0204600F018F80BF6B5BD0BF6CFBD204609F6E6FF204600F02FA9
:F93B5500F8BDE8F08F3D2180F8CB10204600F042F80BF640BA70BD0CF6CEB9000010B50446B0F8A40080F00400A4F8A400B4F88C20C0F38000C2F3C00181420DD10021104607F6ACFD40B194F8E000800704D594F83501401E84F83501B4F8A40010BD10B504461FF6ACFD002813D01FF6E6FD00280FD0E07B01280CD1204611F697FA204615F6F1FE002804D12046BDE810400AF660BD10BD044A0F2111700821A0F8881001201FF609B900003A292800002070BD84F554FE0F494FF47A700860FEE710B5012801D0002010BD0B4C2068C00201D587F533FD2068800301D587F5ACFF2068000304D5002088F5AFF988F509F9012010BD000000903200A3
:F93C4E00A80728002B01A001E83628000000000000000000000000000000080000000000000000000000000000000000000000000000000000000000000000000000000000000000000000000000000000000000000000000000000000000000000000000000000000000000000000000000000000000000000000000000000000000000000000000000000000000000000000000000000000000000000000000000000000000000000000000301588437280070B5A4F5ABFF0024104D1CE0104801190A68C2F31700120E05D0930706D04968A5F54CF80EE0496801600BE012F00C0F03D04968A5F556F804E0D20602D54968A5F55AF80834AC42E0D342
:F93D470070BD60000000D8372800030164D837280090560A10F036280098560A10FC36280089550A01ED3328009D0E02017D342800217301026535280035F10802D135280061030902E135280075EA0802F1352800A1F40802013628009DF9080203362800ED790A0299362800080600089D3628000601044106270003050F001000000200008001001900000000030184FE031C00210008B50BF0A7FEBDE8084000F0BFBE000070471CB5012805D0C64C022807D0032810D12FE0F2F666F83AF6A6FE0AE0002000F075FA00F09FF9206840F0010020600BF624F8002000900246AFF23B0101906846FAF560FFB8480B210170FF218171B648018821F0AD
:F93E400010010180B548016821F480710160FCF580F8B24930B14FF4967008601CBDF2F636F8D1E70120F8E710B500F0C8FA002800D0012010BD08B100F0CBBA00F0D2BA10B500F0A2FA002800D0012010BD08B100F0A3BA00F0AABA00F04CBA10B500F05CFAC0B210BD10B500F065FA80B210BD10B500F06EFA80B210BD10B500F077FA80B210BD10B500F027FA80B210BD944AC2E9000170472DE9F05F0E4691498046002017469946DDF828A005468B460C6812E02178B1420CD16178B94209D1207930B161884B4652464046F8F67DFE00E0FD2010346D1CEDB2DBF804108D42E8D3BDE8F09F2DE9F0417E4B0246002509CB2C46294614E0468817CC
:F93F390088BE420DD14678012E0AD0866846B1457853890178D0F808C0D2682846E04706E01030491CC9B29942E8D305B901242046BDE8F0818270C37041600021017281724172FE210170704700210172817241727047007A7047017A29B14168427A807812FB0010704700207047017A00290AD0491E0172417A491CC9B24172C278914201D300214172704770B504464068A37AA57813FB050058F654FB207A401C2072A07A401CC0B2A072E178884201D30020A072012070BD30B4C378047A5B1E9C4201DA30BCE0E7002030BC704730B4037AC478A34201D230BCD6E70020F4E770B505461C464B70FFF7E6FF002806D129466C70BDE870400222D6
:F94032000846E7E770BDC0B280F665B970B50D468AF6ACF97DF633FA040015D0E07B002812D0206D4189C0888900B1FBF0F0401E80B2854200D9054694F6A9F8216D0D81BDE8704094F6A7B870BD00F0DCB800F0F1B810B50DF673FC40B924480068002805D001200DF6D2FC002800D0012010BD204800780A2801D00020704701207047022100F0E3B8FEB514461D466FF0010601280AD0D2B100F026F9009012233246002128460AF632FFFEBD01A83DF6DBFC44B11220009033460022294601A8B4F66AFDFEBD01A8B4F682FDFEBDBDE8FE400AF636BF0849088070470000BC29280074072800280028006C072800402120000C9F2700A4FF2000FAF8
:F9412B0020200010B501783E290AD12F4A81781379994205D2126802EB8101096801B18847032010BD294810B508300178C90703D08189007900F08BF83AF6F5FCAFF23B002349086010BD0120704710B50446C07828BB00F0D9F8A1680160A1898180E07900F0EDF8608B00F0F8F8A08B00F003F9E08B00F00EF9A08800F0C0F8134C0834207840070BD500F0E0F86188884202DDA18C207F01E0A189207900F058F8012010BD10B50446C07858B9E08800F0D5F8208900F0E0F8608900F0EBF8A08800F09DF8012010BD01207047149F2700E828200010B593F6DEFF0446C00701D138F6F5FD204610BD10B5044693F6D7FFE00703D1BDE8104038F682
:F9422400EBBD10BD2E48406A40421821B0FBF1F080B2704710B585F648FB93F6BFFF28490C6893F6BFFF85F64DF9204610BDA1EB0000010102D540F07040704720F07040704710B50446FFF7E5FFA04201D200F18050001B10BD3FF661BF10B571F688FB002800D0C08B10BD70B5164CA076E0769EF654F9154D296860F30F21618294F91B009EF64BF9296860F30F21A18270BD10B50C4C60769EF641F90B49096860F30F21218210BD10B58AF64EF828B190F8DA00BDE810407BF6C3BF7F2010BD00A0320088803100681228000483310050490860704710B540B1FFF7F9FF4D4810210068BDE8104093F628B84A48F4E7484800687047474800680818
:F9431D00B1008870474FF0FF30704743490968002900D00880704740480068002800D0001D704710B506223C4B0021521E1C680C44491C247984540629F7D310BD3648006808B1C07870474FF0FF30704732490968002900D0C87070472F48006808B1408970474FF0FF3070472B490968002900D0488170472848006808B1808970474FF0FF30704724490968002900D0888170472148006808B1C08970474FF0FF3070471D490968002900D0C88170471A480068002802D0807800F00100704716480068002803D0817841F001018170704712480068002803D0817821F00101817070470D48006818B1807800F0020070474FF0FF307047084800680C
:F9441600002803D0817841F002018170704704480068002803D0817821F0020181707047449F2700D8A92700064A01231370064A1370064B02221A70054A00231360054A13607047569F2700579F2700D6B127007CA12700C8A0270007B5009100210346034A084671F690F903B05DF804FB00BFB441270070B5144D2C6888B0092320468DF80E3058F68EF819238DF81630B5F85C308DF804301B0A8DF8053001ABADF80C000226049340F211122346074908480294ADF8146002F017FF02A9304611F0AFF82C6008B070BD349D2700DD4127002842270037B51B4B40F214521A801A4B1A4A0021054619600090194B084671F64BF90DB110F040F9FF21
:F9450F00F7BCFF1548164C0BF0E8FD20F036FC0CF02CFE01200EF04DFF43F230134FF480520021CDE9003208460B4B0D4A71F62FF90D4B0D4A1A60626812B9284601F085FE0123636003B030BD00BFA8AE270090A127004D422700424227005D6D2700C8A027005C422700A0A12700B106210038B5051F00F10C043EF644FF45F8040FA542F9D138BD00002DE9F0410446FFF7EFFF134858F60AF80546124858F606F80C30854214D9DFF83C800D4F0025404657F6FCFF0130284438440AF05EF9C5F346060235A055C6F10F060C2DA055EED131223023A271E37122726372BDE8F081D0A027007242270002289ABF024B03EBC0000020704700BF9C96D5
:F94608002700002070477047000070B5114AD2F8273092F826201D2010FB023040F23115834213D01C7E00220AE0D3F8191001EB02110E88AE4202D14988052904D00132A242F2DB1D33EBE7012070BD0020FCE700BFD8962700F0B5124AD2F8273092F826201D2515FB02354FF6FF770022AB4215D01E7E002100E00131CCB2A6420CD9D3F8194004EB0114B4F800C0BC45F3D164888442F0D10132D2B21D33E7E71046F0BDD89627002DE9F04FA3B0064650480893CDE9051202F0FCFD059B4E4ACDE90163002140F22D5300930346084671F662F84FF6FE739E4204D1474B1C68002C40F08280BDF81430ADF838304FF6FF7505234FF00008DFF80435
:F947010091ADF83460ADF836508DF84B30444699F826305FFA88FA53453CD91D2707FB0AF74FF0000B01E00BF1010BD9F827203A445FFA8BF3117E994224D9190107910993D2F819200A441188B142ECD15468002CE9D0002211460BA8A0470028E3D0D9F82720079B06993A44D2F819201A44099B528895B201B10A80089A1AB108999DF84B200A70D9F82720174408F101083A7E9A42BCD91B4B93F82630534598BF0024069B194A1B8801930021059B00930846334670F6F3FF124B5A68A2B14FF6FF739E4217D1112D03D8104BEB40DB070AD405F581433E339BB2052B04D941F205039D4218BF1446204623B0BDE8F08F4FF6FF75D5E71446F6E778
:F947FA0086432700CC43270014A12700D8962700EC4327003200030030B585B0FFF731FC40F63544002104FB00F32C4A42F210750846B3FBF5F370F6B5FF294A2948138901339BB2012B138112D1FDF5ABFF002005F03EFC0023009332220321782006F099F84FF47A611F48FDF583FF05B030BD62F05AFE02F0ECFA1B491C481FF0D0F804A9C82301F8013D01224FF47E2006F071FD0021164A084670F684FFFFF7F1FB002144430D4AB4FBF5F40846234670F679FF41F26F75AC4202D9F8F6DCFCFEE701211420F8F6FFFEFFF7DBFB40F63544444342F21070B4FBF0F4ECE70944270014A12700E4AE2700310B2100D8962700444E270038B51C468D6B
:F948F300B228B9049B214628464CF69CFA38BD2BB1049B214628464CF687FAF7E7284604994CF69DFA2046F1E70000F8B51D4C05460E460FF032FFE368AB42074603D12369B3420ED1F8BD63B115B12369B3420AD00021144A08464CF63CF90023E36015B9F0E7002DF1D1321C104B18BF01229A7560221A840E4A1289520709D40123C4E903362846084A0021BDE8F8404CF621B9002FF3D16269002AF0D130221A84EDE700BF14A12700410D2100349D2700D896270010B5029CB9B90D490988914213D153B101229342227008D002218B4202F10100A15403D110BD1A46F6E71846431C03222254D8B2F6E7FF20F4E700BFD89627002DE9FF410D46F6
:F949EC0000910021CDE901231F460446034616460846294A70F6CDFE4FF6FF739F4214D0274BD3F810E0BEF1000F04D10024204604B0BDE8F08164237B43324629462046F44604B0BDE8F04160471D4B93F82620A242EBD9D3F82710C4EBC40304EB830319440022087ED3B29842DFD9D1F8193003EB02131F88AF421BD15F88B74218D1D3F80480B8F1000FD0D00027294600973B46324620461EF094FC05460028C5D03A463946C047044628B928461EF0D5FCBDE70132D7E70124B9E721442700B8962700D8962700002110B5034604460F4A084670F66EFE042C05D100210846BDE81040FFF726BF022C02D100210120F6E7032C03D1BDE810400190
:F94AE500F0DFBC052C05D1F9F668F8BDE8104002F001B910BD4B44270073B50C46054610B3C379032B1FD1154EB369F3B14B78FF2B1BD18B78042B18D1CB78082B15D115F045FCCDE90001DDE900232146DDE900232846B369984715F039FCCDE90001DDE90023DDE9002302B070BD95F90800214602B0BDE8704010F02BBD00BF14A127002DE9FF47654C236918783EF6DDFB10F0FF0F0DD101214FF41670F8F69EFD236918783EF6D1FB10F0FF0F01D106F068FE00F0A2FC06F0E0FA594B5B6803B19847584A5949594F5A48DFF8C891DFF8C881DFF8C8A15FF0CEFD08233B700A23042689F80030534888F8006010238AF8003016F054FE054641F225
:F94BDE000F30FFF73DFDC0F57F504D4B3F3084B241F20F301C80FFF733FD4A4B241AA4B241F207301C80FFF72BFD474B241AA4B241F203301C80FFF723FD444B241AA4B241F20C301C80FFF71BFD414B241AA4B24FF498501C80FFF713FD3E4B241AA4B241F209001C80FFF70BFD3B4B241AA4B241F206001C80FFF703FD384A201A83B21380374A013B9BB213809AF800209B1A344A9BB21380344A013B9BB2138099F800209B1A314A9BB21380314A591E1180304A991E1180304AD91E1180043B2F4A9BB2138098F800209B1A2D4A9BB213803A789B1A2B4A9BB21380FF352A4A013B9BB2ADB21380FE356FF0FE0295FBF2F5264A2B449BB213802546
:F94CD7004A591E11806FF47A721344234A0021138040F2FF33CDE9011300960623204A084670F651FD04B0BDE8F08740382700B896270026382700349D2700579F270045102100D89627009AB1270098B127008CB127008AB1270090B1270088B1270086B1270084B1270082B1270030B22700D8B12700D4B127002CB227006EB627000EB6270078B5270010B6270082B6270080B627006CB627001CAF2700D0B2270081442700D6B12700569F270032B2270013B50C4C0C4B94F820201B78009200210A4A084670F600FD94F8203023B1013B84F8203002B010BD02B0BDE8104066F0E9BE00BF14A1270041AD2700EC442700014BD869704700BF14A1FB
:F94DD000270008B5382200210848FDF552FD0323002206490548FDF5ACFC28B901210248BDE80840FDF5BABC08BDACAE27005912210013281FB547D017285DD0002841D101220DF10F014FF47E2006F03CFA10B9FF238DF80F309DF80F3013B1013B8DF80F3000219DF80F30324A084670F6AFFC9DF80F2002F13703DBB2312B28D8FFF715F940F63544002144432A4A42F2107094FBF0F40846234670F699FCD4F57A7448BF32240423002224492448FDF561FC21462248FDF572FC00212346214A084670F685FC002001E041F6AD7004B010BDC82A0FD8FF2301220DF10F014FF47E208DF80F3006F05BFA012006F078F866F08CFEE7E70020F8E70C53
:F94EC90078002CE2D1114802F0F3F94FF41F7300930F4A03462146204670F65CFC00F016FF0028D2D101F0EAFA0028CED11423024601460FF04DFCC8E7D645270009442700550A2100E4AE2700E145270086432700FC45270000B59BB0242111A8F8F604FABDF866200E92BDF864200D92BDF862200C92BDF860200B92BDF85D200A92BDF85B200992BDF859200892BDF857200792BDF854200692BDF852200592BDF850200492BDF84E200392BDF84B200292BDF8492001920021BDF84720BDF84530009208461E4A70F606FC1D4AB2F8881093880E9192F87C100D91B2F872100C91B2F870100B91B2F864100A9192F858100991B2F84E100891B2F802
:F94FC2004C100791B2F84010069192F834100591518D0491118D0391918B0291117C0191D28800920021094A084670F6D7FB1EF045FA0021064A084670F6D0FB1BB05DF804FB00BF23462700740420006C462700AA57270070B5134C134E226801322260002556F8253003B198470135042DF8D121683C22B1FBF2F302FB13131BB9FFF76DFF60F02FFE094CE36F03B19847D4F8803003B19847D4F8843013B1BDE87040184770BD0C98270080A1270014A1270010B50B4A0023114652F8234084420AD00133042BF8D1002351F823409A001CB9044B1344D86610BD0133042BF4D1FAE780A1270014A1270010B50023054A194652F82340844208BF42DB
:F950BB00F823100133042BF6D110BD80A127001FB50021144A084670F664FB1348FFF7E7FF134B03220DF10E014FF441701A704BF6B2FE0F4B1B68012B0BD10E4802F0DFF840F60513002100930C4A0346084670F648FB0A4B0120D86100F0F9FBFFF7B7F905B05DF804FBD9462700C90F210041AD2700C8A0270086432700ED46270014A1270070B50C4688B0142832D8DFE810F033003100310031003100310032013100310031003100430131009C00EA000E0101012401150087019B01A74CA84AB4F860300021084670F60CFBA548002384F8603084F8613004F15C0206AB062100884BF63EFE062802D1BDF818300BB166F0EEFC08B070BD0B8802
:F951B400BBB94968974A4FF47A70B1FBF0F300FB1313D165002BF0D1944800880DF116035C3206214BF620FE0628E4D1BDF81630E0E78D4D4FF6FF72934228880AD1884A002382F8603082F861300DF116035C320621E7E70A7AADF818302AB16FEA43436FEA5343ADF8183063688DF81A301A0A1B0C8DF81C3063898DF81B200138C01A06AA0DF11603052180B24BF6EDFD0528B1D1BDF81630002BADD1714E6289B6F860309A42A9D3B6F86030628928889A4203D80DF116036D4ACAE70138C01A5A1C0DF1160180B2A6F860204BF6E8FDEAE78B6803934B6802930B68614D0193EB6900930021634B634A084670F67EFA00F038FD064640B1EB69001D
:F952AD002B32D126681EB15E4B30221A800126A3685C4A6B61128952070CD5EA6952B9226802B93BB100210846FFF722FB00210120FFF71EFBEB692068C3B100287FF460AFE86100F00BFB0EB100F02CFB4E4C2368002B3FF455AF00214C4A084670F648FA2368E86998474BE70026D0E70028E7D146E70D688E881BF041F80021CDE901603D4B0095424A084670F632FA364BD3F88830002B3FF434AFA188206898472FE70B6800930021344B3A4A084670F620FA00212068FFF7DCFA22E70B68009300212D4B354A084670F613FA3448FDF519FA10B13248FDF50CFA2B4B9B69002B3FF40FAF2068BEE78B8801930B6800930021214B2B4A084670F649
:F953A600FBF91B4BD3F88C30C7E74B8801930B88264A009300211A4B084670F6EDF9608866F0BEFB124B0122DA61EDE60B7901930B6800930021124B1D4A084670F6DCF9236822798DF81830190A8DF81910190C1B0E8DF81A108DF81B308DF81C200DF1160306AA052140F203304BF604FDCBE614A127000D4727001CAF270070A127002147270031472700DCB72700D8962700B89627006A472700734727009F472700B3472700ACAE2700CB472700F5472700224827000E4B1B78013B012B01D8FFF731FEA38802936388019323880093094A094B0021084670F68FF995E68B8802934B8801930B880093044A034BF1E700BF41AD27003B482700211C
:F9549F004727006448270007B5074B074A5960074B0193074B00930749084B10F054FE03B05DF804FB00BFA4A12700ED83270025832700FD822700498327007183270008B50B480FF6EFFD022164200FF61DFE084B18600420F7F6B1FD2021084660F015FE4FF46120BDE80840F8F6CABB00BF00382700C8A1270010B50FF64EFE044628B100210346034A084670F639F9204610BD00BF4A4927002DE9F843114E80460025344636F83520413A092A4FEAC50707D806EB0709D9F8040057F62FF8A9F80200E35B434502D1E019BDE8F88301350B2DE7D100214346034A084670F610F90020F2E710982700DF492700F0B585B04E89CF6801960B880093B8
:F95598000C46002103460546934A084670F6FBF820886FF4716C00EB0C03062B2AD88E4B00221A8040F61273984203D040F61573984255D16089F7F6A6FE62890092064640B9864B874A014670F6DDF88024204605B0F0BD0346E168002012F0ECFAE66060812146284666F04CFE04463046F7F68CFEECE76FF404714318062B42D8764B002101221A800846754B764A70F6BBF8238800930021714B744A084670F6B3F8238840F21222934203D040F2152293421CD10DF10E026189E06806F0E8FCBDF80E2001460646E068FDF507F9BDF80E3063813046F7F659FE237843F4706323802146284666F00DFE0446B0E7DBB243F47063002123805C4A00D8
:F9569100930846584B70F682F8EDE76FF400728318042B36D8E368524E59789A7871806429B2802AD8642A28D81B7833B3514801F0FBFD73880193002140F25A434E4A00930346084670F662F84A4801F0EDFDB3880193002140F25B430093484A0346084670F654F8002296F90200114604F024FB2146284606F0C6FBB9E7002211461046F4E76FF44073C318022B04D82146284607F0EAFEABE72D2810D00BD8042848D02A2827D000212F4B354A084670F62EF801244FE732282FD03528F3D1FFF7F2FE044660B1428840680021FDF591F862886068B24228BF32463946FDF581F8204EF38823B300221146284600240FF00CF8F4802FE7FFF71EFB51
:F9578A00044638B10021194B204A084670F602F8822423E7F3B23A46294611F057F91DE7FFF70CFB014610B9104B194AEEE7F1B238460EF04BFE002410E76389022B0ED1E26851781378084A43EA012300211381084600930F4A054B6FF6DCFFEBE70D24FCE600BF024A2700CCA127002E4A27003E4A27004F4A2700684A2700774A2700BA4A2700D44A2700574B2700ED4A2700154B2700384B27002DE9F043814685B080200F4614461E46F7F674FD054650B980240094264B274A01466FF6ABFF204605B0BDE8F083244B1B88012B31D10DF10E0231460C9806F00FFC804628B1BDF80E20802A03D9F7F657FD8024E7E701462846FCF5F9FF4046BD4D
:F9588300F80E60F7F64CFDE4B244F4007400210096114B134A08466FF680FFD6B12B46324621463846B9F1000F10D0F7F6ABF904462846F7F634FDC5E780230093324603460C99012012F081F90646DFE7F7F691F9EDE78124ECE76D4B27003E4A2700CCA12700794B270008B505483DF630FC082200210348BDE80840FCF5C1BF00BF0D1E210020AF270013B568B94FF419710A48F7F691F90A4B0A4A0090002108466FF63CFF02B010BD40F265210648F7F683F9034B0090054AF0E700BF689827008C4B27009B4B2700CC9A2700BE4B270007B50B4803899B070ED502AB094A43F8042D032104224089F7F644F900210346054A08466FF612FF03B0D2
:F9597C005DF804FB00BFCCA127000100FFFFDF4B27006FF4716C01EB0C02062A0B4604D80A4B00221A8066F07EBE6FF404728A18062A06D8054A01211180D9B241F47061F1E7C81E18BF01207047CCA1270070B586B082780388009204460021774A08466FF6DFFEA378013B052B00F2E480DFE813F006008D009200B300D100DD00A3886FF4716C214603EB0C02062A31F8040B06D86A4B00221A8066F019FC04466EE06FF404769A19062A07D8644ADBB2012543F470631580A380EEE76FF400755A19042A02D806F04DFAE8E76FF440729A18022A02D807F029FDE0E7042B19D1E288012A4BD8E3681B88012B4BD9544920690B89012A05D11B0A0368
:F95A750070E3681A8000243DE003700B8922691B0A5370E3680222F4E71846FFF751FD0546002834D0A2884388162A19D12BB9464B1868686056F686FD68806A88E1888A42E0D9002ADED0E0680388521A9A42A8BF1A466B68028019442069FCF5CFFED1E7182AEAD1002BE8D1374BB3F85C308DF808301B0A8DF8093002AB436002234380DBE70724204606B070BD0D24FAE70124F8E7211D2088FFF73DFD82E72B4E336835463BB1A389E2899918B1F5007F0ADD1124E7E74FF40070F7F6F6FB30600028F0D10924DEE72868A188E98018442169FCF594FEA389E2891344AB8092E71B4D2B68002BE4D01022002102A82488FCF58DFEEB88ADF8083070
:F95B6E002B6805930026AB88ADF8123002A920460396FFF703FD04462868F7F6CBFB2E60B4E70021A3880C4A08466FF601FE074BA088D8800EF0D4FD68E7A1882088FFF7EFFE32E70424A1E70B4C2700CCA12700349D270020AF2700304C27002DE9F04389B00C460091002105460346444A08466FF6DEFD1DB1042D7BD0042050E0A668FFF7EAF8E37B0393A3890293E3883D4ACDE900032946334628466FF6C9FDE37B394E012B358068D1384B9B680BB120469847A568364F002D35D0364B4FF448721A80E3887381F3880BB91723F3802168DFF8C480012000F0BBFA00257B5B72890BB1934209D17B197A53F2885A802168062208EB0500FCF505B2
:F95C6700FE0A351E2DEDD1002305930793A368069303B1E388ADF8163008A8236840F8103D66F0C3FA002009B0BDE8F083A84607F10409795B7289914207EB050309D127F805800622A3F80280002109EB0500FCF5E4FD0A351E2DECD10025216875812846F58000F078FA00F0FAFB1423A289294628460EF05EFDC6E72046FFF772FED2E72846D0E700BF5D4C2700864C2700CCA12700B896270028AF2700DCB727002CAF2700014B9879704700BFCCA12700024B5889003018BF01207047CCA12700024B588908B1F6F6B1BF7047CCA127002DE9F047064617461D468946F1B11FFA83F808F1070080B2F7F6E6FA044638B30023A0F800904380A0F8DC
:F95D6000048083712A4639460730FCF582FD2246B0B20121F6F678FF2046BDE8F047F7F6D0BA094B187B10F0010007D01346B0B2AAB23421BDE8F047F6F636BF044ABDE8F0476FF6FCBCBDE8F087CCA12700DA4C27000E4B1A8842701A88120A82705A88C2705A88120A02719A8842719B881B0A83710623C3710423037200234372FF2383720323C3720B23037001207047D896270070B5ADF5547D0C46A0F14005002119A807F7BEF9214619A811F8012B09F701F80024B5B9F7F6D3FE694619A809F732F808A9442224F0030020F01CF908AB04F003010E4A1944684620F094FD0DF5547D70BDB5F5007F2E4628BF4FF40076F21C22F0030254A920AC
:F95E59004620F004F9324654A919A808F7D6FF3444AD1BD2E7AC9D2700F7B503780B2B2FD182784378C578447903EB0223027905EB0225827904EB0224174A11889BB28B42ADB2A4B2164605D15788AF4202D19288A24218D000910021104A08466FF672FC7388009300212B460D4A08466FF66AFCB3880C4A00932346002108466FF662FC002003B0F0BDC379052B03D806220092054AF1E70120F4E7D8962700064D2700264D2700464D2700664D270008B50021054A08466FF646FC044A0549054809F0F3FF002008BD00BF8C4D270035202100B5202100F51F2100024B1B6803B11847704700BF94A1270037B5284C25888DB1012D0AD1264D6A7D4A
:F95F5200022A01D005F06EFF6B7D012B01D001F015FC2388013B238003B030BDFFF7DAFE1E4861F0D5FA1E4B1E491F481D60A92201F0BCF900F060FF1C491D481DF044FD012818481FD101F08FF9AC23194A00930346294628466FF6F9FBC82301221649A3704FF47E2005F0D9F90E4801F07CF9B22300210093114A034608466FF6E6FBF7F64DF9FEE701F06FF9AE2300930C4A0346DEE70C9E2700A89E2700F0A1270094A127009B4D2700CE4D2700310B2100D8962700E54D27000E9E2700364E27000F4E270037B5154D2C881CB1013C2C8003B030BD124801F047F9BF23114A00932146034620466FF6B1FB0F48FCF5AEFB234632220321642000D2
:F9604B009404F09FFC2946FA2301F8023F01224FF47E2005F086F904232B80054B064A1A60D9E70C9E27009B4D2700544E270048AF270094A127008521210038B5144C23880BB1013B238023880E2B0CD1114B93F83820012A07D1002183F838104FF47E200D4905F05EF9258885B9FF2301220949A3704FF47E2005F054F9074B05481D6061F029FABDE83840FFF71FBE38BD0C9E2700F0A127000E9E270094A1270070B588B01222002103A8FCF5C5FBFF238DF80D3004238DF80E3008238DF80F3003238DF810301F481F4D204E06238DF8113001F0CDF840F2A91300210093019503461B4A08466FF635FB0024304656F63FFA01302044284408F006
:F9614400A1FBC4F3460308AA134402340C2C03F80E0CEED1114B1B78012B18BF002301248DF818308DF81940FFF7D3FD002814BF204600208DF81A000E230F2103A88DF80C3001F04AFD08B070BD9B4D2700D0A02700724227007B4E270046A2270007B5C82300933022002324210248F6F6D6FE03B05DF804FB80AF270038B50D46044660B901F012FD214606220848FCF557FB05F0ABFEBDE8384007F0B1B9FFF783FF294606220248BDE83840FCF540BB80AF270007B501220DF107014FF47E2005F048F810B9FF238DF807300D48FCF5CEFA024680B10B48FCF5C0FA4FF47A710848FCF5A2FA084B03221A80074B084A1A6003B05DF804FB042306BC
:F9623D00490148FCF57FFAEBE7F0A127000C9E270094A12700C92221007521210030B5012185B005460846F7F6AEFC4E4C4E4901224FF47E2005F010F806F082F84B4B4C494C48009440F2273201F03AF8012003F01DFF02F045FA01F043F905F0FBF9434B43494448009440F2333201F029F81DF09DF9414B00904FF44D723D493F4801F01FF840F6040340F2373239493C4801F017F843F230134FF44E723549384801F00FF84FF4805340F239323149354801F007F80A2340F23A322D4900933248012300F0FEFF02A83CF610FD002102AB2F4A08466FF645FA1DB11DF06CF91DF0B0F9234800F0CBFF2A4B2A4A1B780193002140F25E33009303465E
:F963360008466FF631FAFFF75BFF254B30222E2131201A7059709870D97018715A71214B1870154859709A70D9701A7100F0AAFF1D4B0193002140F2A53300931B4A034608466FF611FA1A48FCF517FA10B1184861F0CCF80423002216491548FCF5D6F928211348FCF5E7F905B030BDF24E27000E9E2700CC4E27009B4D2700D84E27009E382700FB4E27001D4F27002F4F2700414F2700574F2700489F2700664F270006A12700F6A02700D0A02700814F270048AF2700E9282100F8B51A4E1A490C22F01DFCF53BFA3520F6F68EFFF71C0446D8B1164D202200212846FCF537FA204600F078FC35284FF0140215D121462846FCF524FA0E4856F6C5D6
:F9642F00F8411C0C2229443846FCF51BFA0023F3732046F6F66EFF084B09481F60F8BD00212846FCF516FAF3E700BF0C9E2700CC4E2700D0A0270072422700349D27000F9E2700024B0122C3E90722704700BF0C9E270038B5074CE36B03F5617505F069FE854201D2FFF7EDFF05F063FEE06338BD00BFF0A1270010B5064B00241C6201F09EFB224620460121BDE8104060F058B800BF0C9E27002DE9F0436A4E737D022B8BB000F0CE80684C06228DF81320626A012A04D1012B02D10020FFF7B6FE6348644FDFF8AC8100F0E0FE40F2294300210093019703465F4A08466FF648F90025404656F652F801302844384408F0B4F9C5F34603234402352D
:F96528000C2D83F82C00EFD1564F564D3B78012B18BF002384F83230012384F8333084F8343084F836308DF81E30ADF81C300DF113030693FF238DF826300F230A2206A9ADF824300220484B84F8352008934AF622FB092328688DF81E3056F61AF82B68069319238DF82630B5F85C308DF814301B0AADF81C004FF002088DF815303548ADF8248005AB089300F083FE002140F257430093364A034608466FF6ECF806A940464AF6FAFA636A012B02D0E369012B25D100252A4601210320E5615FF0C4FF05F0BBFD2B4FF863234800F062FEFF6B804605F0B2FD40F25E43CDE901700093254A4346294628466FF6C5F8707D00236362431E584258410BBA
:F9662100B0BDE8F083236A002BF3D03F78D7B91348194D00F041FED5F83C90804605F090FD40F26243CDE901900093144A4346394638466FF6A3F8ED6B05F082FD05F561758542D6D90022012104205FF080FFD0E70020D4E7A89E27000C9E27009B4D2700D0A027007B4E270046A22700349D2700349E2700A34F2700F0A12700C84F27007242270037B51A20F7F60EFA604CB4F9423000B2A4F840000BB9A4F84200B0F5FA6F6CDAB4F844301A200133A4F84430F7F6FAF900B2B0F5FA6FA4F8400004DAB4F844300133A4F84430B4F84030A4F84230B4F8463053BBB4F84430012B03D8B4F84830042B22D94A4DAA780123FA2AA4F846300FD9484BD5
:F9671A009B79012B04D100221146104603F0FCF9FFF764FD012384F838300F232B80414800F0BEFD4FF4B973002100933E4A034608466FF627F8B4F84430322B21D9FFF7DDFA68B1FFF7E2FA364800F0A9FD4FF4BD7300210093354A034608466FF612F8FFF794FE2F4800F09BFD40F27D13002100932F4A034608466FF604F80023A4F8443003B030BDB4F84630012B2BD1234D022384F83830AB780BB1013BAB70AB78FA2B2ED91E4B9A79012A24D10021084603F0AAF9FFF712FD00F098F90123C5E90733FFF773FE01F0DDFC01F0B5FD154800F066FD40F2571300210093124A034608466EF6CFFF0023A4F84430A4F84630A4F848306DE700221100
:F968130046012002F020FFD8E70C4B0C4A196891421FBF01222A800A4A1A60DBE700BFF0A127000C9E2700A89E27009B4D2700FA4F2700245027004850270094A1270085212100592221002DE9F04389B0044616460F4613F0A4FDCDE90601DDE90623DDE90623A3890596627F0492A28A0392628A02926289019222893A4D00923A493A4840F2B44200F031FDEB6C0133EB64374B5B7D012B63D062894FF6FF739A4208D1A089013803288CBF0020012009B0BDE8F0832C4800F0F7FC40F2D343002100932C4A034608466EF660FFA389013B032B42D832463946204600F037FE20461CF0A8FD13F05CFDCDE906011E48DDE90689DDE9066700F0D7FCFA
:F9690C0000214FF49D6300931D4A034608466EF640FF4FF47A72002340464946A3F6E1FF4FF47A720023A3F6DCFFEB6C013B144601934FF47A72002330463946A3F6D1FF234600920A490E4840F2E94200F0D1FC0D48064940F2EA4200F0CBFC0120A9E720461CF06AFD0020A4E7F0A127009B4D270074502700A89E2700B3502700EA502700205127003D512700164BDA79012A84BF0122DA71DA798AB11A8B033A92B248F69D418A4284BF1E221A835A8B033A92B248F69D418A4284BF1E225A83DA7D023A122A84BF0B22DA759A79012A84BF01229A711A88B2F5247F3CBF4FF424721A80704700BFA89E270037B5324A138833B1013B9BB2032B135B
:F96A05008004D103B030BD2E4A1360FAE7022B35D1FEF782FA05F0A2FB2A4CE06005F0DAFB206105F0DDFB2075FFF7B2FF264800F041FC002159230093244A034608466EF6ABFE1C2221464FF47D2004F08DFC1C2804D05B221C491E4800F04EFC00256571FEF75AFA184800F025FC5F23194A00932946034608466EF68FFEC2E7002BC0D1FEF74AFA5A2214494FF4782004F06CFC5A2804D068220C49104800F02DFC084B00241C60FEF738FA074800F003FC6C2300930B4A03462146DCE700BF44A2270098A12700A89E2700465127007D5127009A512700BA51270028B12700DA51270002522700034B044A1A60044B05221A80704700BF98A127000B
:F96AFE00392C210044A22700034B044A1A60044B0F221A80704700BF98A12700392C210044A22700802938B505460C4617D80A4601464FF4792004F01BFC844201D1012038BD0123224629464FF4792004F070FB8442F4D09C220349034800F0D1FB0020EEE700BF465127002A522700502970B506460D4628D8154C50220021201DFBF581FE5DB9A57052221149E5704FF47A2004F0EEFB522809D1012070BD01232A463146201DA370FBF565FEECE70123522207494FF47A2004F03BFB5228ECD0B5220449054800F09CFB0020E6E744A2270046A22700465127004952270070B5134C0D46064650220021201DFBF54BFEA5B9A5700F48E570FBF5DC7A
:F96BF700FD10B10C4860F091FC0C490A4803230022FBF59BFD03210748BDE87040FBF5AABD01232A463146201DA370FBF526FEE3E700BF44A2270098A227008196270010B5F6F6C2FF05F091FA284CE06005F0C9FA206105F0CCFA1C22207521464FF47D2004F089FB1C280DD001231C2221464FF47D2004F0E0FA1C2804D0E1221C491C4800F041FBF6F6A0FF54221A494FF4792004F071FB54280DD00123542216494FF4792004F0C8FA542804D0E7221049104800F029FBF6F688FF5A220F494FF4782004F059FB5A280FD001235A220B494FF4782004F0B0FA5A2806D0F02204490748BDE8104000F00FBB10BDA89E2700465127009A512700D4A794
:F96CF000270028B12700DA512700024B01225A71FFF799BF00BFA89E270037B50446114800F0D3FA4FF47C25002140F21113CDE900350D4A034608466EF639FD35222146284604F022FA50B93522FF212046FBF5A0FD40F215120349054800F0D8FA352003B030BD00BF465127006A5227008652270038B5304CFEF7DAF852220021A01CFBF587FDA11C52224FF47A2004F08BFA52281EBF0023A370E370274C542200212046FBF576FD214654224FF4792004F07AFA54281CBF00232370204C1C2221464FF47D2004F06FFA1C2822D1A36801331FD0E379FF2B1CD0FFF7E5FD194C00235A2221464FF47820637004F05CFA5A2802D12378142B1CD95A71
:F96DE9002212491148FBF540FD114812494FF4B17200F080FA002038BD0F4D0A4C0FCD0FC495E80700012384E807004FF4A97209490A4800F06FFAD4E70120ECE744A22700D4A72700A89E270028B12700443F2700EC52270046512700B4382700A9522700F7B51A481A4D1B4E00F032FA002140F277130093184A034608466EF69BFC0FCD3446D6F808C0B77D0FC495E8070084E80700124CC6F808C05A2200212046B775FBF5FAFC0123542200210D486370FBF5F3FCF6F690FE00210846FFF761FE01F02FFA03B0BDE8F040FFF7C0BE46512700B4382700A89E27001F53270028B12700D4A7270037B53448344D354C00F0F0F900214FF4C87300932C
:F96EE200324A034608466EF659FC0FCD0FC495E807002F4D84E807005A2200212846FBF5BFFC0124522200212A486C70FBF5B8FC2346522227494FF47A2004F087F9522805D04FF4CE721E49234800F0E7F9542200212248FBF5A4FC012354221F494FF4792004F073F9542805D040F2A3121449194800F0D3F901F0D7F901231C2212494FF47D2004F062F91C2805D04FF4D5720B49134800F0C2F901235A220C494FF4782004F053F95A2808D005490D484FF4D97203B0BDE8304000F0B0B903B030BD46512700B4382700A89E27003D53270028B1270046A2270049522700D4A727009A512700DA5127001FB5244B012400211C201C705FF0A8F822A0
:F96FDB004621464FF47A10F6F666FD50211B205FF09EF802AB21464FF47A724FF47A105EF0CEFF039A4FF6FC739A4288BF03930121002300930846DDE90232F6F680FE0120F6F692FE4F211A205FF081F802AB4FF47A7201214FF47A105EF0B1FF039A4FF6FC739A4288BF039301210091DDE902320020F6F664FE0020F6F676FE04B010BD00BFD0A227000F4B10B5012000241C70F6F665FE21461B205FF059F822464FF480411B203CF6EDF82046F6F658FE21461A205FF04CF822464FF480411A20BDE810403CF6DEB8D0A22700FFF790BF37B50446224800F003F9002140F29513019400931F4A034608466EF66BFB04F117031E2B84BF083424116D
:F970D40019488CBF04F570444FF4704400F0EBF84FF47045002140F2BF13CDE90035134A034608466EF651FB0F4800F0DCF800214FF4E073019400930E4A034608466EF644FB4FF208018C4238BF0C464FF6F971A1422A4628BF2146012003B0BDE83040F6F6FBBD00BF605327009B532700B9532700E253270037B50446224800F0B3F800214FF4F873019400931F4A034608466EF61BFB04F117031E2B84BF0834241119488CBF04F570444FF4704400F09BF84FF47045002140F21A23CDE90035134A034608466EF601FB0F4800F08CF8002140F21B23019400930E4A034608466EF6F4FA4FF208018C4238BF0C464FF6F971A1422A4628BF21460025
:F971CD002003B0BDE83040F6F6ABBD00BF605327000D5427002C542700565427002DE9FF4107462A482A4D0C46904600F05FF800215723284A00930194034608466EF6C8FA224800F053F800215823234A0093CDF80480034608466EF6BBFA1C4800F046F81E492A781E4B002A14BF1A460A46002F08BF0B46CDE90123002159230093194A034608466EF6A4FA2B78D7B1012B01D0FFF7B4FE08FB04F04FF6FF7690FBF6F080B2FFF71BFFA6EB080060430E4C90FBF4F0013880B2FFF761FF2F7004B0BDE8F081002BF9D0FFF7E5FEF6E760532700D0A2270089542700A25427008554270082542700C15427000100FFFF10B5044655F67CF92044A042E1
:F972C600037803D82F2B07D1013007E02F2BFBD05C2BF9D00138F2E75C2BF5D010BD0EB403B503AA52F8041B0192AFF629FF02B05DF804EB03B070470CB4F7B508AD0746084655F8046B114CFFF7D4FF3346024604F1800620460E49FFF7E1FF01952A46394604F580753046AFF60AFF3346224628460849FFF7D3FF00212A4608466EF62BFA03B0BDE8F04002B07047D1A22700D9542700E254270038B5034C002525601CF06EF8A58038BDD4A427002DE9FF4106461D48DFF87C8014461D460F46FFF799FFB38A194ACDE90173002125230093034608466EF600FAB781002742463946F77638466EF6F8F929462046F5F683FE2946204607F076F8299F
:F973BF0046204607F0B7F842462070394638466EF6E6F929462046F5F671FE064B2A462146304604B0BDE8F04113F0D7BD00BFE85427001E552700A13521003E552700F7B50DF0C5F9054638B9284C206810B1F5F688FF256003B0F0BD254C2368012B08D1A38801339BB20A2BA3802AD900232360A380A06808B11CF006F800271D481A4DFBF5ADF9A7803B460097012240F6040138461BF0ACFF0646A060C8B91648FFF72CFF55230093144A0346314630466EF696F928680028CDD0F5F653FF00232B60C8E70B48322103B0BDE8F040FBF56EB92A68002AEDD0012323602B8983824777AB88A97AFFF765FFE3E7CCAF2700D4A427008CAF2700E85421
:F974B80027004B552700F7B506460D46ADF800008DF8021004F049FE124BDDF800C01A6800231C4652F8337002EBC301BC45496802D1CF1D874211D802EBC4077F688F4288BF1C4601331E2BECD102EBC40322F8346058609D70012003B0F0BD0020FBE700BF88AF270010B50B4C23681BB9F0205EF00FFC2060F02200212068FBF5A5F90423002205490548FBF5FFF80548BDE810403BF6EDBB88AF2700413621008CAF2700C4AF2700F0B5054689B04F4817460E46FFF7A6FE2B890393AB8A02936B8A0193002198230093494A034608466EF60AF9032F0CD84448FFF793FE9C23444A00930346002108466EF6FDF809B0F0BD3946304606F0C2FF04FA
:F975B100463B4834B1FFF780FEA12300933B4A0346EBE7FFF779FEA62321460093384A034620466EF6E3F8374A214620466EF6DEF839463046F5F669FD3946304606F05CFF2B48FFF761FEAE23214600932C4A034620466EF6CBF82B4A214620466EF6C6F839463046F5F651FD6C8A0DF0B7F88442BFD07178688AFFF749FF0028B9D031463A4605A807F060F8059E002EB1D0BDF81A30002BADD1AB895A1E012A21D81A48FBF5ADF810B11848FBF5A0F8174C206808B1F5F65DFEBDF81830A3806B8A23810423A372124B10485A7926603223B2FBF3F103FB1121C9B209B0BDE8F040FBF56CB8304609B0BDE8F040F5F641BE00BFE85427006D5527006C
:F976AA00A0552700C4552700E4552700AA5727008CAF2700CCAF2700C4AF27001FB501A807F04CF8BDF80A30022B21D01148FBF56AF810B10F48FBF55DF80F4C206808B1F5F61AFE019B23600120BDF80830A380FCF77CFF038823810423A372074B0548597901F6AC5104B0BDE81040FBF529B804B010BD8CAF2700CCAF2700C4AF27001FB501A807F04EF8BDF80A30022B21D01148FBF538F810B10F48FBF52BF80F4C206808B1F5F6E8FD019B23600120BDF80830A380FCF74AFF038823810423A372074B0548597901F6AC5104B0BDE81040FAF5F7BF04B010BD8CAF2700CCAF2700C4AF27001FB501A807F04CF8BDF80A30022B21D01148FBF5061E
:F977A300F810B10F48FAF5F9FF0F4C206808B1F5F6B6FD019B23600120BDF80830A380FCF718FF038823810423A372074B0548597901F6AC5104B0BDE81040FAF5C5BF04B010BD8CAF2700CCAF2700C4AF270010B5013A431E013950FA82F013F8012F11F8014F834282EA04021A70F6D110BD73B50130012501AEEAB2002310F823409C550133042BF9D111B1C2F10402D2B20023D41804F003040DF1080C644414F8044C00F823400133042BF2D10135042D00F10100E0D102B070BD10F0800F4FEA400018BF80F01B00C0B270472DE9F74F0446884600F1100794F8009094F801B0A67894F803A089EA0B0080EA060282EA0A03FFF7E2FF89EA0005AB
:F9789C005D40EDB28BEA06008DF80450FFF7D8FF8BEA00015940C9B286EA0A008DF80510FFF7CEFF70404340DBB289EA0A008DF80630FFF7C5FF4240D2B28DF80720B8F1000F26D089EA0600FFF7BAFFFFF7B8FF81468BEA0A00FFF7B3FFFFF7B1FF064689EA0000C0B2FFF7ABFF89EA000946405FFA89F9F6B285EA0905714083EA090956408DF804508DF805108DF806908DF80760042220460DEB02010434FAF59BFFBC429CD103B0BDE8F08F2DE9F34102AF0123014647F8043D10221C481D4CDFF87480FAF588FF0425261D042221463046FAF581FFAB071BD1627923792271A2796271E279A271E371E21DE31C13F8011F18F8011019709342F821
